{"abi":[{"type":"constructor","inputs":[{"name":"_governanceToken","type":"address","internalType":"address"},{"name":"_votingDelay","type":"uint256","internalType":"uint256"},{"name":"_votingPeriod","type":"uint256","internalType":"uint256"},{"name":"_quorumVotes","type":"uint256","internalType":"uint256"}],"stateMutability":"nonpayable"},{"type":"function","name":"cancel","inputs":[{"name":"proposalId","type":"uint256","internalType":"uint256"}],"outputs":[],"stateMutability":"nonpayable"},{"type":"function","name":"castVote","inputs":[{"name":"proposalId","type":"uint256","internalType":"uint256"},{"name":"support","type":"bool","internalType":"bool"},{"name":"tokenId","type":"uint256","internalType":"uint256"}],"outputs":[],"stateMutability":"nonpayable"},{"type":"function","name":"eligibleTokens","inputs":[{"name":"","type":"uint256","internalType":"uint256"}],"outputs":[{"name":"","type":"bool","internalType":"bool"}],"stateMutability":"view"},{"type":"function","name":"execute","inputs":[{"name":"proposalId","type":"uint256","internalType":"uint256"}],"outputs":[],"stateMutability":"nonpayable"},{"type":"function","name":"getProposal","inputs":[{"name":"proposalId","type":"uint256","internalType":"uint256"}],"outputs":[{"name":"","type":"tuple","internalType":"struct GovernanceDAO.ProposalInfo","components":[{"name":"id","type":"uint256","internalType":"uint256"},{"name":"proposer","type":"address","internalType":"address"},{"name":"description","type":"string","internalType":"string"},{"name":"startBlock","type":"uint256","internalType":"uint256"},{"name":"endBlock","type":"uint256","internalType":"uint256"},{"name":"forVotes","type":"uint256","internalType":"uint256"},{"name":"againstVotes","type":"uint256","internalType":"uint256"},{"name":"executed","type":"bool","internalType":"bool"},{"name":"canceled","type":"bool","internalType":"bool"},{"name":"currentState","type":"uint8","internalType":"enum GovernanceDAO.ProposalState"}]}],"stateMutability":"view"},{"type":"function","name":"governanceToken","inputs":[],"outputs":[{"name":"","type":"address","internalType":"contract FractionalizedNFT"}],"stateMutability":"view"},{"type":"function","name":"hasVoted","inputs":[{"name":"proposalId","type":"uint256","internalType":"uint256"},{"name":"account","type":"address","internalType":"address"}],"outputs":[{"name":"","type":"bool","internalType":"bool"}],"stateMutability":"view"},{"type":"function","name":"owner","inputs":[],"outputs":[{"name":"","type":"address","internalType":"address"}],"stateMutability":"view"},{"type":"function","name":"proposalCount","inputs":[],"outputs":[{"name":"","type":"uint256","internalType":"uint256"}],"stateMutability":"view"},{"type":"function","name":"proposals","inputs":[{"name":"","type":"uint256","internalType":"uint256"}],"outputs":[{"name":"id","type":"uint256","internalType":"uint256"},{"name":"proposer","type":"address","internalType":"address"},{"name":"description","type":"string","internalType":"string"},{"name":"startBlock","type":"uint256","internalType":"uint256"},{"name":"endBlock","type":"uint256","internalType":"uint256"},{"name":"forVotes","type":"uint256","internalType":"uint256"},{"name":"againstVotes","type":"uint256","internalType":"uint256"},{"name":"executed","type":"bool","internalType":"bool"},{"name":"canceled","type":"bool","internalType":"bool"}],"stateMutability":"view"},{"type":"function","name":"propose","inputs":[{"name":"tokenId","type":"uint256","internalType":"uint256"},{"name":"description","type":"string","internalType":"string"}],"outputs":[{"name":"","type":"uint256","internalType":"uint256"}],"stateMutability":"nonpayable"},{"type":"function","name":"quorumVotes","inputs":[],"outputs":[{"name":"","type":"uint256","internalType":"uint256"}],"stateMutability":"view"},{"type":"function","name":"renounceOwnership","inputs":[],"outputs":[],"stateMutability":"nonpayable"},{"type":"function","name":"setTokenEligibility","inputs":[{"name":"tokenId","type":"uint256","internalType":"uint256"},{"name":"eligible","type":"bool","internalType":"bool"}],"outputs":[],"stateMutability":"nonpayable"},{"type":"function","name":"state","inputs":[{"name":"proposalId","type":"uint256","internalType":"uint256"}],"outputs":[{"name":"","type":"uint8","internalType":"enum GovernanceDAO.ProposalState"}],"stateMutability":"view"},{"type":"function","name":"transferOwnership","inputs":[{"name":"newOwner","type":"address","internalType":"address"}],"outputs":[],"stateMutability":"nonpayable"},{"type":"function","name":"votingDelay","inputs":[],"outputs":[{"name":"","type":"uint256","internalType":"uint256"}],"stateMutability":"view"},{"type":"function","name":"votingPeriod","inputs":[],"outputs":[{"name":"","type":"uint256","internalType":"uint256"}],"stateMutability":"view"},{"type":"event","name":"OwnershipTransferred","inputs":[{"name":"previousOwner","type":"address","indexed":true,"internalType":"address"},{"name":"newOwner","type":"address","indexed":true,"internalType":"address"}],"anonymous":false},{"type":"event","name":"ProposalCanceled","inputs":[{"name":"proposalId","type":"uint256","indexed":true,"internalType":"uint256"}],"anonymous":false},{"type":"event","name":"ProposalCreated","inputs":[{"name":"proposalId","type":"uint256","indexed":true,"internalType":"uint256"},{"name":"proposer","type":"address","indexed":true,"internalType":"address"},{"name":"description","type":"string","indexed":false,"internalType":"string"},{"name":"startBlock","type":"uint256","indexed":false,"internalType":"uint256"},{"name":"endBlock","type":"uint256","indexed":false,"internalType":"uint256"}],"anonymous":false},{"type":"event","name":"ProposalExecuted","inputs":[{"name":"proposalId","type":"uint256","indexed":true,"internalType":"uint256"}],"anonymous":false},{"type":"event","name":"TokenEligibilityChanged","inputs":[{"name":"tokenId","type":"uint256","indexed":true,"internalType":"uint256"},{"name":"eligible","type":"bool","indexed":false,"internalType":"bool"}],"anonymous":false},{"type":"event","name":"VoteCast","inputs":[{"name":"voter","type":"address","indexed":true,"internalType":"address"},{"name":"proposalId","type":"uint256","indexed":true,"internalType":"uint256"},{"name":"support","type":"bool","indexed":false,"internalType":"bool"},{"name":"votes","type":"uint256","indexed":false,"internalType":"uint256"}],"anonymous":false},{"type":"error","name":"OwnableInvalidOwner","inputs":[{"name":"owner","type":"address","internalType":"address"}]},{"type":"error","name":"OwnableUnauthorizedAccount","inputs":[{"name":"account","type":"address","internalType":"address"}]}],"bytecode":{"object":"0x608060405234801561000f575f5ffd5b5060405161278138038061278183398181016040528101906100319190610262565b335f73ffffffffffffffffffffffffffffffffffffffff168173ffffffffffffffffffffffffffffffffffffffff16036100a2575f6040517f1e4fbdf700000000000000000000000000000000000000000000000000000000815260040161009991906102d5565b60405180910390fd5b6100b18161011060201b60201c565b508360015f6101000a81548173ffffffffffffffffffffffffffffffffffffffff021916908373ffffffffffffffffffffffffffffffffffffffff160217905550826002819055508160038190555080600481905550505050506102ee565b5f5f5f9054906101000a900473ffffffffffffffffffffffffffffffffffffffff169050815f5f6101000a81548173ffffffffffffffffffffffffffffffffffffffff021916908373ffffffffffffffffffffffffffffffffffffffff1602179055508173ffffffffffffffffffffffffffffffffffffffff168173ffffffffffffffffffffffffffffffffffffffff167f8be0079c531659141344cd1fd0a4f28419497f9722a3daafe3b4186f6b6457e060405160405180910390a35050565b5f5ffd5b5f73ffffffffffffffffffffffffffffffffffffffff82169050919050565b5f6101fe826101d5565b9050919050565b61020e816101f4565b8114610218575f5ffd5b50565b5f8151905061022981610205565b92915050565b5f819050919050565b6102418161022f565b811461024b575f5ffd5b50565b5f8151905061025c81610238565b92915050565b5f5f5f5f6080858703121561027a576102796101d1565b5b5f6102878782880161021b565b94505060206102988782880161024e565b93505060406102a98782880161024e565b92505060606102ba8782880161024e565b91505092959194509250565b6102cf816101f4565b82525050565b5f6020820190506102e85f8301846102c6565b92915050565b612486806102fb5f395ff3fe608060405234801561000f575f5ffd5b5060043610610114575f3560e01c80636036e9e0116100a0578063d4f6b5ec1161006f578063d4f6b5ec146102e6578063da35c66414610316578063f2fde38b14610334578063f96dae0a14610350578063fe0d94c11461036e57610114565b80636036e9e014610272578063715018a61461028e5780638da5cb5b14610298578063c7f758a8146102b657610114565b8063349664a7116100e7578063349664a7146101a85780633932abb1146101d85780633e4f49e6146101f657806340e58ee514610226578063438596321461024257610114565b8063013cf08b1461011857806302a251a31461015057806324bc1a641461016e57806327f27b301461018c575b5f5ffd5b610132600480360381019061012d91906114d7565b61038a565b604051610147999897969594939291906115da565b60405180910390f35b610158610492565b604051610165919061166c565b60405180910390f35b610176610498565b604051610183919061166c565b60405180910390f35b6101a660048036038101906101a191906116af565b61049e565b005b6101c260048036038101906101bd91906114d7565b61050a565b6040516101cf91906116ed565b60405180910390f35b6101e0610527565b6040516101ed919061166c565b60405180910390f35b610210600480360381019061020b91906114d7565b61052d565b60405161021d9190611779565b60405180910390f35b610240600480360381019061023b91906114d7565b610626565b005b61025c600480360381019061025791906117bc565b61083c565b60405161026991906116ed565b60405180910390f35b61028c600480360381019061028791906117fa565b6108e5565b005b610296610cfb565b005b6102a0610d0e565b6040516102ad919061184a565b60405180910390f35b6102d060048036038101906102cb91906114d7565b610d35565b6040516102dd91906119be565b60405180910390f35b61030060048036038101906102fb9190611b0a565b610ef8565b60405161030d919061166c565b60405180910390f35b61031e61114f565b60405161032b919061166c565b60405180910390f35b61034e60048036038101906103499190611b64565b611155565b005b6103586111d9565b6040516103659190611bea565b60405180910390f35b610388600480360381019061038391906114d7565b6111fe565b005b6005602052805f5260405f205f91509050805f015490806001015f9054906101000a900473ffffffffffffffffffffffffffffffffffffffff16908060020180546103d490611c30565b80601f016020809104026020016040519081016040528092919081815260200182805461040090611c30565b801561044b5780601f106104225761010080835404028352916020019161044b565b820191905f5260205f20905b81548152906001019060200180831161042e57829003601f168201915b505050505090806003015490806004015490806005015490806006015490806007015f9054906101000a900460ff16908060070160019054906101000a900460ff16905089565b60035481565b60045481565b6104a66112ce565b8060075f8481526020019081526020015f205f6101000a81548160ff021916908315150217905550817fc62b2e405a87a1c7033ec99333de2cc0cefc9553c420910bc558f4f5928321ca826040516104fe91906116ed565b60405180910390a25050565b6007602052805f5260405f205f915054906101000a900460ff1681565b60025481565b5f6006548210610572576040517f08c379a000000000000000000000000000000000000000000000000000000000815260040161056990611caa565b60405180910390fd5b5f60055f8481526020019081526020015f2090508060070160019054906101000a900460ff16156105a7576005915050610621565b806007015f9054906101000a900460ff16156105c7576004915050610621565b806003015443116105db575f915050610621565b806004015443116105f0576001915050610621565b8060060154816005015411158061060c57506004548160050154105b1561061b576002915050610621565b60039150505b919050565b600654811061066a576040517f08c379a000000000000000000000000000000000000000000000000000000000815260040161066190611caa565b60405180910390fd5b5f6106748261052d565b90505f600581111561068957610688611706565b5b81600581111561069c5761069b611706565b5b14806106cc5750600160058111156106b7576106b6611706565b5b8160058111156106ca576106c9611706565b5b145b61070b576040517f08c379a000000000000000000000000000000000000000000000000000000000815260040161070290611d12565b60405180910390fd5b5f60055f8481526020019081526020015f209050806001015f9054906101000a900473ffffffffffffffffffffffffffffffffffffffff1673ffffffffffffffffffffffffffffffffffffffff163373ffffffffffffffffffffffffffffffffffffffff1614806107ae575061077f610d0e565b73ffffffffffffffffffffffffffffffffffffffff163373ffffffffffffffffffffffffffffffffffffffff16145b6107ed576040517f08c379a00000000000000000000000000000000000000000000000000000000081526004016107e490611da0565b60405180910390fd5b60018160070160016101000a81548160ff021916908315150217905550827f789cf55be980739dad1d0699b93b58e806b51c9d96619bfa8fe0a28abaa7b30c60405160405180910390a2505050565b5f6006548310610881576040517f08c379a000000000000000000000000000000000000000000000000000000000815260040161087890611caa565b60405180910390fd5b60055f8481526020019081526020015f206008015f8373ffffffffffffffffffffffffffffffffffffffff1673ffffffffffffffffffffffffffffffffffffffff1681526020019081526020015f205f9054906101000a900460ff16905092915050565b6006548310610929576040517f08c379a000000000000000000000000000000000000000000000000000000000815260040161092090611caa565b60405180910390fd5b60075f8281526020019081526020015f205f9054906101000a900460ff16610986576040517f08c379a000000000000000000000000000000000000000000000000000000000815260040161097d90611e2e565b60405180910390fd5b5f60055f8581526020019081526020015f209050600160058111156109ae576109ad611706565b5b6109b78561052d565b60058111156109c9576109c8611706565b5b14610a09576040517f08c379a0000000000000000000000000000000000000000000000000000000008152600401610a0090611e96565b60405180910390fd5b806008015f3373ffffffffffffffffffffffffffffffffffffffff1673ffffffffffffffffffffffffffffffffffffffff1681526020019081526020015f205f9054906101000a900460ff1615610a95576040517f08c379a0000000000000000000000000000000000000000000000000000000008152600401610a8c90611efe565b60405180910390fd5b60015f9054906101000a900473ffffffffffffffffffffffffffffffffffffffff1673ffffffffffffffffffffffffffffffffffffffff16632c0a3f8985846040518363ffffffff1660e01b8152600401610af1929190611f1c565b6020604051808303815f875af1158015610b0d573d5f5f3e3d5ffd5b505050506040513d601f19601f82011682018060405250810190610b319190611f57565b505f60015f9054906101000a900473ffffffffffffffffffffffffffffffffffffffff1673ffffffffffffffffffffffffffffffffffffffff1663bb4d4436336040518263ffffffff1660e01b8152600401610b8d919061184a565b602060405180830381865afa158015610ba8573d5f5f3e3d5ffd5b505050506040513d601f19601f82011682018060405250810190610bcc9190611f57565b90505f8111610c10576040517f08c379a0000000000000000000000000000000000000000000000000000000008152600401610c0790611fcc565b60405180910390fd5b8315610c3357808260050154610c269190612017565b8260050181905550610c4c565b808260060154610c439190612017565b82600601819055505b6001826008015f3373ffffffffffffffffffffffffffffffffffffffff1673ffffffffffffffffffffffffffffffffffffffff1681526020019081526020015f205f6101000a81548160ff021916908315150217905550843373ffffffffffffffffffffffffffffffffffffffff167f877856338e13f63d0c36822ff0ef736b80934cd90574a3a5bc9262c39d217c468684604051610cec92919061204a565b60405180910390a35050505050565b610d036112ce565b610d0c5f611355565b565b5f5f5f9054906101000a900473ffffffffffffffffffffffffffffffffffffffff16905090565b610d3d61141d565b6006548210610d81576040517f08c379a0000000000000000000000000000000000000000000000000000000008152600401610d7890611caa565b60405180910390fd5b5f60055f8481526020019081526020015f209050604051806101400160405280825f01548152602001826001015f9054906101000a900473ffffffffffffffffffffffffffffffffffffffff1673ffffffffffffffffffffffffffffffffffffffff168152602001826002018054610df890611c30565b80601f0160208091040260200160405190810160405280929190818152602001828054610e2490611c30565b8015610e6f5780601f10610e4657610100808354040283529160200191610e6f565b820191905f5260205f20905b815481529060010190602001808311610e5257829003601f168201915b5050505050815260200182600301548152602001826004015481526020018260050154815260200182600601548152602001826007015f9054906101000a900460ff16151581526020018260070160019054906101000a900460ff1615158152602001610edb8561052d565b6005811115610eed57610eec611706565b5b815250915050919050565b5f60075f8481526020019081526020015f205f9054906101000a900460ff16610f56576040517f08c379a0000000000000000000000000000000000000000000000000000000008152600401610f4d90611e2e565b60405180910390fd5b5f60015f9054906101000a900473ffffffffffffffffffffffffffffffffffffffff1673ffffffffffffffffffffffffffffffffffffffff1663bb4d4436336040518263ffffffff1660e01b8152600401610fb1919061184a565b602060405180830381865afa158015610fcc573d5f5f3e3d5ffd5b505050506040513d601f19601f82011682018060405250810190610ff09190611f57565b11611030576040517f08c379a0000000000000000000000000000000000000000000000000000000008152600401611027906120e1565b60405180910390fd5b5f60065f815480929190611043906120ff565b9190505590505f60055f8381526020019081526020015f20905081815f018190555033816001015f6101000a81548173ffffffffffffffffffffffffffffffffffffffff021916908373ffffffffffffffffffffffffffffffffffffffff160217905550838160020190816110b891906122dd565b50600254436110c79190612017565b816003018190555060035481600301546110e19190612017565b81600401819055503373ffffffffffffffffffffffffffffffffffffffff16827f6c98a8c940418b35614f0cd02412d5c9606faff474cbb6cdd6640ba5d1a9f06b868460030154856004015460405161113c939291906123ac565b60405180910390a3819250505092915050565b60065481565b61115d6112ce565b5f73ffffffffffffffffffffffffffffffffffffffff168173ffffffffffffffffffffffffffffffffffffffff16036111cd575f6040517f1e4fbdf70000000000000000000000000000000000000000000000000000000081526004016111c4919061184a565b60405180910390fd5b6111d681611355565b50565b60015f9054906101000a900473ffffffffffffffffffffffffffffffffffffffff1681565b6003600581111561121257611211611706565b5b61121b8261052d565b600581111561122d5761122c611706565b5b1461126d576040517f08c379a000000000000000000000000000000000000000000000000000000000815260040161126490612432565b60405180910390fd5b5f60055f8381526020019081526020015f2090506001816007015f6101000a81548160ff021916908315150217905550817f712ae1383f79ac853f8d882153778e0260ef8f03b504e2866e0593e04d2b291f60405160405180910390a25050565b6112d6611416565b73ffffffffffffffffffffffffffffffffffffffff166112f4610d0e565b73ffffffffffffffffffffffffffffffffffffffff161461135357611317611416565b6040517f118cdaa700000000000000000000000000000000000000000000000000000000815260040161134a919061184a565b60405180910390fd5b565b5f5f5f9054906101000a900473ffffffffffffffffffffffffffffffffffffffff169050815f5f6101000a81548173ffffffffffffffffffffffffffffffffffffffff021916908373ffffffffffffffffffffffffffffffffffffffff1602179055508173ffffffffffffffffffffffffffffffffffffffff168173ffffffffffffffffffffffffffffffffffffffff167f8be0079c531659141344cd1fd0a4f28419497f9722a3daafe3b4186f6b6457e060405160405180910390a35050565b5f33905090565b6040518061014001604052805f81526020015f73ffffffffffffffffffffffffffffffffffffffff168152602001606081526020015f81526020015f81526020015f81526020015f81526020015f151581526020015f151581526020015f600581111561148d5761148c611706565b5b81525090565b5f604051905090565b5f5ffd5b5f5ffd5b5f819050919050565b6114b6816114a4565b81146114c0575f5ffd5b50565b5f813590506114d1816114ad565b92915050565b5f602082840312156114ec576114eb61149c565b5b5f6114f9848285016114c3565b91505092915050565b61150b816114a4565b82525050565b5f73ffffffffffffffffffffffffffffffffffffffff82169050919050565b5f61153a82611511565b9050919050565b61154a81611530565b82525050565b5f81519050919050565b5f82825260208201905092915050565b8281835e5f83830152505050565b5f601f19601f8301169050919050565b5f61159282611550565b61159c818561155a565b93506115ac81856020860161156a565b6115b581611578565b840191505092915050565b5f8115159050919050565b6115d4816115c0565b82525050565b5f610120820190506115ee5f83018c611502565b6115fb602083018b611541565b818103604083015261160d818a611588565b905061161c6060830189611502565b6116296080830188611502565b61163660a0830187611502565b61164360c0830186611502565b61165060e08301856115cb565b61165e6101008301846115cb565b9a9950505050505050505050565b5f60208201905061167f5f830184611502565b92915050565b61168e816115c0565b8114611698575f5ffd5b50565b5f813590506116a981611685565b92915050565b5f5f604083850312156116c5576116c461149c565b5b5f6116d2858286016114c3565b92505060206116e38582860161169b565b9150509250929050565b5f6020820190506117005f8301846115cb565b92915050565b7f4e487b71000000000000000000000000000000000000000000000000000000005f52602160045260245ffd5b6006811061174457611743611706565b5b50565b5f81905061175482611733565b919050565b5f61176382611747565b9050919050565b61177381611759565b82525050565b5f60208201905061178c5f83018461176a565b92915050565b61179b81611530565b81146117a5575f5ffd5b50565b5f813590506117b681611792565b92915050565b5f5f604083850312156117d2576117d161149c565b5b5f6117df858286016114c3565b92505060206117f0858286016117a8565b9150509250929050565b5f5f5f606084860312156118115761181061149c565b5b5f61181e868287016114c3565b935050602061182f8682870161169b565b9250506040611840868287016114c3565b9150509250925092565b5f60208201905061185d5f830184611541565b92915050565b61186c816114a4565b82525050565b61187b81611530565b82525050565b5f82825260208201905092915050565b5f61189b82611550565b6118a58185611881565b93506118b581856020860161156a565b6118be81611578565b840191505092915050565b6118d2816115c0565b82525050565b6118e181611759565b82525050565b5f61014083015f8301516118fd5f860182611863565b5060208301516119106020860182611872565b50604083015184820360408601526119288282611891565b915050606083015161193d6060860182611863565b5060808301516119506080860182611863565b5060a083015161196360a0860182611863565b5060c083015161197660c0860182611863565b5060e083015161198960e08601826118c9565b5061010083015161199e6101008601826118c9565b506101208301516119b36101208601826118d8565b508091505092915050565b5f6020820190508181035f8301526119d681846118e7565b905092915050565b5f5ffd5b5f5ffd5b7f4e487b71000000000000000000000000000000000000000000000000000000005f52604160045260245ffd5b611a1c82611578565b810181811067ffffffffffffffff82111715611a3b57611a3a6119e6565b5b80604052505050565b5f611a4d611493565b9050611a598282611a13565b919050565b5f67ffffffffffffffff821115611a7857611a776119e6565b5b611a8182611578565b9050602081019050919050565b828183375f83830152505050565b5f611aae611aa984611a5e565b611a44565b905082815260208101848484011115611aca57611ac96119e2565b5b611ad5848285611a8e565b509392505050565b5f82601f830112611af157611af06119de565b5b8135611b01848260208601611a9c565b91505092915050565b5f5f60408385031215611b2057611b1f61149c565b5b5f611b2d858286016114c3565b925050602083013567ffffffffffffffff811115611b4e57611b4d6114a0565b5b611b5a85828601611add565b9150509250929050565b5f60208284031215611b7957611b7861149c565b5b5f611b86848285016117a8565b91505092915050565b5f819050919050565b5f611bb2611bad611ba884611511565b611b8f565b611511565b9050919050565b5f611bc382611b98565b9050919050565b5f611bd482611bb9565b9050919050565b611be481611bca565b82525050565b5f602082019050611bfd5f830184611bdb565b92915050565b7f4e487b71000000000000000000000000000000000000000000000000000000005f52602260045260245ffd5b5f6002820490506001821680611c4757607f821691505b602082108103611c5a57611c59611c03565b5b50919050565b7f496e76616c69642070726f706f73616c204944000000000000000000000000005f82015250565b5f611c9460138361155a565b9150611c9f82611c60565b602082019050919050565b5f6020820190508181035f830152611cc181611c88565b9050919050565b7f43616e6e6f742063616e63656c2065786563757465642070726f706f73616c005f82015250565b5f611cfc601f8361155a565b9150611d0782611cc8565b602082019050919050565b5f6020820190508181035f830152611d2981611cf0565b9050919050565b7f4f6e6c792070726f706f736572206f72206f776e65722063616e2063616e63655f8201527f6c00000000000000000000000000000000000000000000000000000000000000602082015250565b5f611d8a60218361155a565b9150611d9582611d30565b604082019050919050565b5f6020820190508181035f830152611db781611d7e565b9050919050565b7f546f6b656e206e6f7420656c696769626c6520666f7220676f7665726e616e635f8201527f6500000000000000000000000000000000000000000000000000000000000000602082015250565b5f611e1860218361155a565b9150611e2382611dbe565b604082019050919050565b5f6020820190508181035f830152611e4581611e0c565b9050919050565b7f566f74696e6720697320636c6f736564000000000000000000000000000000005f82015250565b5f611e8060108361155a565b9150611e8b82611e4c565b602082019050919050565b5f6020820190508181035f830152611ead81611e74565b9050919050565b7f416c726561647920766f746564000000000000000000000000000000000000005f82015250565b5f611ee8600d8361155a565b9150611ef382611eb4565b602082019050919050565b5f6020820190508181035f830152611f1581611edc565b9050919050565b5f604082019050611f2f5f830185611502565b611f3c6020830184611502565b9392505050565b5f81519050611f51816114ad565b92915050565b5f60208284031215611f6c57611f6b61149c565b5b5f611f7984828501611f43565b91505092915050565b7f4e6f20766f74696e6720706f77657200000000000000000000000000000000005f82015250565b5f611fb6600f8361155a565b9150611fc182611f82565b602082019050919050565b5f6020820190508181035f830152611fe381611faa565b9050919050565b7f4e487b71000000000000000000000000000000000000000000000000000000005f52601160045260245ffd5b5f612021826114a4565b915061202c836114a4565b925082820190508082111561204457612043611fea565b5b92915050565b5f60408201905061205d5f8301856115cb565b61206a6020830184611502565b9392505050565b7f50726f706f73657220766f7465732062656c6f772070726f706f73616c2074685f8201527f726573686f6c6400000000000000000000000000000000000000000000000000602082015250565b5f6120cb60278361155a565b91506120d682612071565b604082019050919050565b5f6020820190508181035f8301526120f8816120bf565b9050919050565b5f612109826114a4565b91507fffffffffffffffffffffffffffffffffffffffffffffffffffffffffffffffff820361213b5761213a611fea565b5b600182019050919050565b5f819050815f5260205f209050919050565b5f6020601f8301049050919050565b5f82821b905092915050565b5f600883026121a27fffffffffffffffffffffffffffffffffffffffffffffffffffffffffffffffff82612167565b6121ac8683612167565b95508019841693508086168417925050509392505050565b5f6121de6121d96121d4846114a4565b611b8f565b6114a4565b9050919050565b5f819050919050565b6121f7836121c4565b61220b612203826121e5565b848454612173565b825550505050565b5f5f905090565b612222612213565b61222d8184846121ee565b505050565b5b81811015612250576122455f8261221a565b600181019050612233565b5050565b601f8211156122955761226681612146565b61226f84612158565b8101602085101561227e578190505b61229261228a85612158565b830182612232565b50505b505050565b5f82821c905092915050565b5f6122b55f198460080261229a565b1980831691505092915050565b5f6122cd83836122a6565b9150826002028217905092915050565b6122e682611550565b67ffffffffffffffff8111156122ff576122fe6119e6565b5b6123098254611c30565b612314828285612254565b5f60209050601f831160018114612345575f8415612333578287015190505b61233d85826122c2565b8655506123a4565b601f19841661235386612146565b5f5b8281101561237a57848901518255600182019150602085019450602081019050612355565b868310156123975784890151612393601f8916826122a6565b8355505b6001600288020188555050505b505050505050565b5f6060820190508181035f8301526123c48186611588565b90506123d36020830185611502565b6123e06040830184611502565b949350505050565b7f50726f706f73616c2063616e6e6f7420626520657865637574656400000000005f82015250565b5f61241c601b8361155a565b9150612427826123e8565b602082019050919050565b5f6020820190508181035f83015261244981612410565b905091905056fea26469706673582212206f91ce3efccb57ed721e21489c88876e82609e971d8729ffe9a0715dce2c977e64736f6c634300081c0033","linkReferences":{}},"methodIdentifiers":{"cancel(uint256)":"40e58ee5","castVote(uint256,bool,uint256)":"6036e9e0","eligibleTokens(uint256)":"349664a7","execute(uint256)":"fe0d94c1","getProposal(uint256)":"c7f758a8","governanceToken()":"f96dae0a","hasVoted(uint256,address)":"43859632","owner()":"8da5cb5b","proposalCount()":"da35c664","proposals(uint256)":"013cf08b","propose(uint256,string)":"d4f6b5ec","quorumVotes()":"24bc1a64","renounceOwnership()":"715018a6","setTokenEligibility(uint256,bool)":"27f27b30","state(uint256)":"3e4f49e6","transferOwnership(address)":"f2fde38b","votingDelay()":"3932abb1","votingPeriod()":"02a251a3"},"id":35}