{"abi":[{"type":"constructor","inputs":[{"name":"_token","type":"address","internalType":"address"},{"name":"_approvers","type":"address[]","internalType":"address[]"}],"stateMutability":"nonpayable"},{"type":"function","name":"approveExecution","inputs":[{"name":"proposalId","type":"uint256","internalType":"uint256"}],"outputs":[],"stateMutability":"nonpayable"},{"type":"function","name":"approvedBy","inputs":[{"name":"","type":"uint256","internalType":"uint256"},{"name":"","type":"address","internalType":"address"}],"outputs":[{"name":"","type":"bool","internalType":"bool"}],"stateMutability":"view"},{"type":"function","name":"finalizeProposal","inputs":[{"name":"proposalId","type":"uint256","internalType":"uint256"}],"outputs":[],"stateMutability":"nonpayable"},{"type":"function","name":"hasVoted","inputs":[{"name":"","type":"uint256","internalType":"uint256"},{"name":"","type":"address","internalType":"address"}],"outputs":[{"name":"","type":"bool","internalType":"bool"}],"stateMutability":"view"},{"type":"function","name":"multiSigApprovers","inputs":[{"name":"","type":"uint256","internalType":"uint256"}],"outputs":[{"name":"","type":"address","internalType":"address"}],"stateMutability":"view"},{"type":"function","name":"proposalCounter","inputs":[],"outputs":[{"name":"","type":"uint256","internalType":"uint256"}],"stateMutability":"view"},{"type":"function","name":"proposals","inputs":[{"name":"","type":"uint256","internalType":"uint256"}],"outputs":[{"name":"id","type":"uint256","internalType":"uint256"},{"name":"proposer","type":"address","internalType":"address"},{"name":"description","type":"string","internalType":"string"},{"name":"callData","type":"bytes","internalType":"bytes"},{"name":"votes","type":"uint256","internalType":"uint256"},{"name":"startTime","type":"uint256","internalType":"uint256"},{"name":"endTime","type":"uint256","internalType":"uint256"},{"name":"state","type":"uint8","internalType":"enum Governance.ProposalState"},{"name":"approvals","type":"uint256","internalType":"uint256"}],"stateMutability":"view"},{"type":"function","name":"propose","inputs":[{"name":"description","type":"string","internalType":"string"},{"name":"callData","type":"bytes","internalType":"bytes"}],"outputs":[],"stateMutability":"nonpayable"},{"type":"function","name":"requiredApprovals","inputs":[],"outputs":[{"name":"","type":"uint256","internalType":"uint256"}],"stateMutability":"view"},{"type":"function","name":"token","inputs":[],"outputs":[{"name":"","type":"address","internalType":"contract IToken"}],"stateMutability":"view"},{"type":"function","name":"uselessYul","inputs":[],"outputs":[{"name":"result","type":"uint256","internalType":"uint256"}],"stateMutability":"pure"},{"type":"function","name":"vote","inputs":[{"name":"proposalId","type":"uint256","internalType":"uint256"}],"outputs":[],"stateMutability":"nonpayable"}],"bytecode":{"object":"0x608060405260028055348015610013575f5ffd5b506040516123a73803806123a7833981810160405281019061003591906102ef565b815f5f6101000a81548173ffffffffffffffffffffffffffffffffffffffff021916908373ffffffffffffffffffffffffffffffffffffffff160217905550806001908051906020019061008a929190610092565b505050610349565b828054828255905f5260205f20908101928215610108579160200282015b82811115610107578251825f6101000a81548173ffffffffffffffffffffffffffffffffffffffff021916908373ffffffffffffffffffffffffffffffffffffffff160217905550916020019190600101906100b0565b5b5090506101159190610119565b5090565b5b80821115610130575f815f90555060010161011a565b5090565b5f604051905090565b5f5ffd5b5f5ffd5b5f73ffffffffffffffffffffffffffffffffffffffff82169050919050565b5f61016e82610145565b9050919050565b61017e81610164565b8114610188575f5ffd5b50565b5f8151905061019981610175565b92915050565b5f5ffd5b5f601f19601f8301169050919050565b7f4e487b71000000000000000000000000000000000000000000000000000000005f52604160045260245ffd5b6101e9826101a3565b810181811067ffffffffffffffff82111715610208576102076101b3565b5b80604052505050565b5f61021a610134565b905061022682826101e0565b919050565b5f67ffffffffffffffff821115610245576102446101b3565b5b602082029050602081019050919050565b5f5ffd5b5f61026c6102678461022b565b610211565b9050808382526020820190506020840283018581111561028f5761028e610256565b5b835b818110156102b857806102a4888261018b565b845260208401935050602081019050610291565b5050509392505050565b5f82601f8301126102d6576102d561019f565b5b81516102e684826020860161025a565b91505092915050565b5f5f604083850312156103055761030461013d565b5b5f6103128582860161018b565b925050602083015167ffffffffffffffff81111561033357610332610141565b5b61033f858286016102c2565b9150509250929050565b612051806103565f395ff3fe608060405234801561000f575f5ffd5b50600436106100b2575f3560e01c80635652077c1161006f5780635652077c146101a457806365069bfc146101c057806385667f1c146101de57806399c1aadc1461020e578063d02b89761461022c578063fc0c546a14610248576100b2565b80630121b93f146100b6578063013cf08b146100d2578063079c48a91461010a5780630c0512e9146101265780631ab2f92c146101445780634385963214610174575b5f5ffd5b6100d060048036038101906100cb9190610f62565b610266565b005b6100ec60048036038101906100e79190610f62565b61054b565b60405161010199989796959493929190611110565b60405180910390f35b610124600480360381019061011f9190610f62565b6106cc565b005b61012e6108d0565b60405161013b91906111a9565b60405180910390f35b61015e60048036038101906101599190610f62565b6108d6565b60405161016b91906111c2565b60405180910390f35b61018e60048036038101906101899190611205565b610911565b60405161019b919061125d565b60405180910390f35b6101be60048036038101906101b99190610f62565b61093b565b005b6101c8610a05565b6040516101d591906111a9565b60405180910390f35b6101f860048036038101906101f39190611205565b610a0f565b604051610205919061125d565b60405180910390f35b610216610a39565b60405161022391906111a9565b60405180910390f35b61024660048036038101906102419190611440565b610a3f565b005b610250610ca8565b60405161025d9190611511565b60405180910390f35b60035f8281526020019081526020015f20600501544210156102bd576040517f08c379a00000000000000000000000000000000000000000000000000000000081526004016102b490611574565b60405180910390fd5b60035f8281526020019081526020015f2060060154421115610314576040517f08c379a000000000000000000000000000000000000000000000000000000000815260040161030b906115dc565b60405180910390fd5b60045f8281526020019081526020015f205f3373ffffffffffffffffffffffffffffffffffffffff1673ffffffffffffffffffffffffffffffffffffffff1681526020019081526020015f205f9054906101000a900460ff16156103ad576040517f08c379a00000000000000000000000000000000000000000000000000000000081526004016103a490611644565b60405180910390fd5b5f5f5f9054906101000a900473ffffffffffffffffffffffffffffffffffffffff1673ffffffffffffffffffffffffffffffffffffffff166370a08231336040518263ffffffff1660e01b815260040161040791906111c2565b602060405180830381865afa158015610422573d5f5f3e3d5ffd5b505050506040513d601f19601f820116820180604052508101906104469190611676565b90505f811161048a576040517f08c379a0000000000000000000000000000000000000000000000000000000008152600401610481906116eb565b60405180910390fd5b5f60035f8481526020019081526020015f2060050154426104ab9190611736565b826104b69190611769565b90508060035f8581526020019081526020015f206004015f8282546104db91906117aa565b92505081905550600160045f8581526020019081526020015f205f3373ffffffffffffffffffffffffffffffffffffffff1673ffffffffffffffffffffffffffffffffffffffff1681526020019081526020015f205f6101000a81548160ff021916908315150217905550505050565b6003602052805f5260405f205f91509050805f015490806001015f9054906101000a900473ffffffffffffffffffffffffffffffffffffffff16908060020180546105959061180a565b80601f01602080910402602001604051908101604052809291908181526020018280546105c19061180a565b801561060c5780601f106105e35761010080835404028352916020019161060c565b820191905f5260205f20905b8154815290600101906020018083116105ef57829003601f168201915b5050505050908060030180546106219061180a565b80601f016020809104026020016040519081016040528092919081815260200182805461064d9061180a565b80156106985780601f1061066f57610100808354040283529160200191610698565b820191905f5260205f20905b81548152906001019060200180831161067b57829003601f168201915b505050505090806004015490806005015490806006015490806007015f9054906101000a900460ff16908060080154905089565b5f60035f8381526020019081526020015f209050600160038111156106f4576106f361109d565b5b816007015f9054906101000a900460ff1660038111156107175761071661109d565b5b14610757576040517f08c379a000000000000000000000000000000000000000000000000000000000815260040161074e90611884565b60405180910390fd5b61076033610ccc565b61079f576040517f08c379a0000000000000000000000000000000000000000000000000000000008152600401610796906118ec565b60405180910390fd5b60065f8381526020019081526020015f205f3373ffffffffffffffffffffffffffffffffffffffff1673ffffffffffffffffffffffffffffffffffffffff1681526020019081526020015f205f9054906101000a900460ff1615610838576040517f08c379a000000000000000000000000000000000000000000000000000000000815260040161082f90611954565b60405180910390fd5b600160065f8481526020019081526020015f205f3373ffffffffffffffffffffffffffffffffffffffff1673ffffffffffffffffffffffffffffffffffffffff1681526020019081526020015f205f6101000a81548160ff021916908315150217905550806008015f8154809291906108b090611972565b91905055506002548160080154106108cc576108cb82610d6e565b5b5050565b60055481565b600181815481106108e5575f80fd5b905f5260205f20015f915054906101000a900473ffffffffffffffffffffffffffffffffffffffff1681565b6004602052815f5260405f20602052805f5260405f205f915091509054906101000a900460ff1681565b5f60035f8381526020019081526020015f20905080600601544211610995576040517f08c379a000000000000000000000000000000000000000000000000000000000815260040161098c90611a03565b60405180910390fd5b6103e8816004015411156109d4576001816007015f6101000a81548160ff021916908360038111156109ca576109c961109d565b5b0217905550610a01565b6002816007015f6101000a81548160ff021916908360038111156109fb576109fa61109d565b5b02179055505b5050565b5f60028001905090565b6006602052815f5260405f20602052805f5260405f205f915091509054906101000a900460ff1681565b60025481565b670de0b6b3a76400005f5f9054906101000a900473ffffffffffffffffffffffffffffffffffffffff1673ffffffffffffffffffffffffffffffffffffffff166370a08231336040518263ffffffff1660e01b8152600401610aa191906111c2565b602060405180830381865afa158015610abc573d5f5f3e3d5ffd5b505050506040513d601f19601f82011682018060405250810190610ae09190611676565b1015610b21576040517f08c379a0000000000000000000000000000000000000000000000000000000008152600401610b1890611a6b565b60405180910390fd5b60055f815480929190610b3390611972565b919050555060405180610120016040528060055481526020013373ffffffffffffffffffffffffffffffffffffffff1681526020018381526020018281526020015f8152602001603c42610b8791906117aa565b81526020016201518042610b9b91906117aa565b81526020015f6003811115610bb357610bb261109d565b5b81526020015f81525060035f60055481526020019081526020015f205f820151815f01556020820151816001015f6101000a81548173ffffffffffffffffffffffffffffffffffffffff021916908373ffffffffffffffffffffffffffffffffffffffff1602179055506040820151816002019081610c329190611c20565b506060820151816003019081610c489190611d47565b506080820151816004015560a0820151816005015560c0820151816006015560e0820151816007015f6101000a81548160ff02191690836003811115610c9157610c9061109d565b5b021790555061010082015181600801559050505050565b5f5f9054906101000a900473ffffffffffffffffffffffffffffffffffffffff1681565b5f5f5f90505b600180549050811015610d64578273ffffffffffffffffffffffffffffffffffffffff1660018281548110610d0a57610d09611e16565b5b905f5260205f20015f9054906101000a900473ffffffffffffffffffffffffffffffffffffffff1673ffffffffffffffffffffffffffffffffffffffff1603610d57576001915050610d69565b8080600101915050610cd2565b505f90505b919050565b5f60035f8381526020019081526020015f20905060016003811115610d9657610d9561109d565b5b816007015f9054906101000a900460ff166003811115610db957610db861109d565b5b14610df9576040517f08c379a0000000000000000000000000000000000000000000000000000000008152600401610df090611e8d565b60405180910390fd5b60025481600801541015610e42576040517f08c379a0000000000000000000000000000000000000000000000000000000008152600401610e3990611ef5565b60405180910390fd5b5f3073ffffffffffffffffffffffffffffffffffffffff1682600301604051610e6b9190611f9d565b5f604051808303815f865af19150503d805f8114610ea4576040519150601f19603f3d011682016040523d82523d5f602084013e610ea9565b606091505b5050905080610eed576040517f08c379a0000000000000000000000000000000000000000000000000000000008152600401610ee490611ffd565b60405180910390fd5b6003826007015f6101000a81548160ff02191690836003811115610f1457610f1361109d565b5b0217905550505050565b5f604051905090565b5f5ffd5b5f5ffd5b5f819050919050565b610f4181610f2f565b8114610f4b575f5ffd5b50565b5f81359050610f5c81610f38565b92915050565b5f60208284031215610f7757610f76610f27565b5b5f610f8484828501610f4e565b91505092915050565b610f9681610f2f565b82525050565b5f73ffffffffffffffffffffffffffffffffffffffff82169050919050565b5f610fc582610f9c565b9050919050565b610fd581610fbb565b82525050565b5f81519050919050565b5f82825260208201905092915050565b8281835e5f83830152505050565b5f601f19601f8301169050919050565b5f61101d82610fdb565b6110278185610fe5565b9350611037818560208601610ff5565b61104081611003565b840191505092915050565b5f81519050919050565b5f82825260208201905092915050565b5f61106f8261104b565b6110798185611055565b9350611089818560208601610ff5565b61109281611003565b840191505092915050565b7f4e487b71000000000000000000000000000000000000000000000000000000005f52602160045260245ffd5b600481106110db576110da61109d565b5b50565b5f8190506110eb826110ca565b919050565b5f6110fa826110de565b9050919050565b61110a816110f0565b82525050565b5f610120820190506111245f83018c610f8d565b611131602083018b610fcc565b8181036040830152611143818a611013565b905081810360608301526111578189611065565b90506111666080830188610f8d565b61117360a0830187610f8d565b61118060c0830186610f8d565b61118d60e0830185611101565b61119b610100830184610f8d565b9a9950505050505050505050565b5f6020820190506111bc5f830184610f8d565b92915050565b5f6020820190506111d55f830184610fcc565b92915050565b6111e481610fbb565b81146111ee575f5ffd5b50565b5f813590506111ff816111db565b92915050565b5f5f6040838503121561121b5761121a610f27565b5b5f61122885828601610f4e565b9250506020611239858286016111f1565b9150509250929050565b5f8115159050919050565b61125781611243565b82525050565b5f6020820190506112705f83018461124e565b92915050565b5f5ffd5b5f5ffd5b7f4e487b71000000000000000000000000000000000000000000000000000000005f52604160045260245ffd5b6112b482611003565b810181811067ffffffffffffffff821117156112d3576112d261127e565b5b80604052505050565b5f6112e5610f1e565b90506112f182826112ab565b919050565b5f67ffffffffffffffff8211156113105761130f61127e565b5b61131982611003565b9050602081019050919050565b828183375f83830152505050565b5f611346611341846112f6565b6112dc565b9050828152602081018484840111156113625761136161127a565b5b61136d848285611326565b509392505050565b5f82601f83011261138957611388611276565b5b8135611399848260208601611334565b91505092915050565b5f67ffffffffffffffff8211156113bc576113bb61127e565b5b6113c582611003565b9050602081019050919050565b5f6113e46113df846113a2565b6112dc565b905082815260208101848484011115611400576113ff61127a565b5b61140b848285611326565b509392505050565b5f82601f83011261142757611426611276565b5b81356114378482602086016113d2565b91505092915050565b5f5f6040838503121561145657611455610f27565b5b5f83013567ffffffffffffffff81111561147357611472610f2b565b5b61147f85828601611375565b925050602083013567ffffffffffffffff8111156114a05761149f610f2b565b5b6114ac85828601611413565b9150509250929050565b5f819050919050565b5f6114d96114d46114cf84610f9c565b6114b6565b610f9c565b9050919050565b5f6114ea826114bf565b9050919050565b5f6114fb826114e0565b9050919050565b61150b816114f1565b82525050565b5f6020820190506115245f830184611502565b92915050565b7f566f74696e67206861736e2774207374617274656400000000000000000000005f82015250565b5f61155e601583610fe5565b91506115698261152a565b602082019050919050565b5f6020820190508181035f83015261158b81611552565b9050919050565b7f566f74696e6720656e64656400000000000000000000000000000000000000005f82015250565b5f6115c6600c83610fe5565b91506115d182611592565b602082019050919050565b5f6020820190508181035f8301526115f3816115ba565b9050919050565b7f416c726561647920766f746564000000000000000000000000000000000000005f82015250565b5f61162e600d83610fe5565b9150611639826115fa565b602082019050919050565b5f6020820190508181035f83015261165b81611622565b9050919050565b5f8151905061167081610f38565b92915050565b5f6020828403121561168b5761168a610f27565b5b5f61169884828501611662565b91505092915050565b7f4e6f20766f74696e6720706f77657200000000000000000000000000000000005f82015250565b5f6116d5600f83610fe5565b91506116e0826116a1565b602082019050919050565b5f6020820190508181035f830152611702816116c9565b9050919050565b7f4e487b71000000000000000000000000000000000000000000000000000000005f52601160045260245ffd5b5f61174082610f2f565b915061174b83610f2f565b925082820390508181111561176357611762611709565b5b92915050565b5f61177382610f2f565b915061177e83610f2f565b925082820261178c81610f2f565b915082820484148315176117a3576117a2611709565b5b5092915050565b5f6117b482610f2f565b91506117bf83610f2f565b92508282019050808211156117d7576117d6611709565b5b92915050565b7f4e487b71000000000000000000000000000000000000000000000000000000005f52602260045260245ffd5b5f600282049050600182168061182157607f821691505b602082108103611834576118336117dd565b5b50919050565b7f4e6f7420706173736564000000000000000000000000000000000000000000005f82015250565b5f61186e600a83610fe5565b91506118798261183a565b602082019050919050565b5f6020820190508181035f83015261189b81611862565b9050919050565b7f4e6f7420617574686f72697a65640000000000000000000000000000000000005f82015250565b5f6118d6600e83610fe5565b91506118e1826118a2565b602082019050919050565b5f6020820190508181035f830152611903816118ca565b9050919050565b7f416c726561647920617070726f766564000000000000000000000000000000005f82015250565b5f61193e601083610fe5565b91506119498261190a565b602082019050919050565b5f6020820190508181035f83015261196b81611932565b9050919050565b5f61197c82610f2f565b91507fffffffffffffffffffffffffffffffffffffffffffffffffffffffffffffffff82036119ae576119ad611709565b5b600182019050919050565b7f566f74696e67207374696c6c206f6e676f696e670000000000000000000000005f82015250565b5f6119ed601483610fe5565b91506119f8826119b9565b602082019050919050565b5f6020820190508181035f830152611a1a816119e1565b9050919050565b7f4e6f7420656e6f75676820746f6b656e7320746f2070726f706f7365000000005f82015250565b5f611a55601c83610fe5565b9150611a6082611a21565b602082019050919050565b5f6020820190508181035f830152611a8281611a49565b9050919050565b5f819050815f5260205f209050919050565b5f6020601f8301049050919050565b5f82821b905092915050565b5f60088302611ae57fffffffffffffffffffffffffffffffffffffffffffffffffffffffffffffffff82611aaa565b611aef8683611aaa565b95508019841693508086168417925050509392505050565b5f611b21611b1c611b1784610f2f565b6114b6565b610f2f565b9050919050565b5f819050919050565b611b3a83611b07565b611b4e611b4682611b28565b848454611ab6565b825550505050565b5f5f905090565b611b65611b56565b611b70818484611b31565b505050565b5b81811015611b9357611b885f82611b5d565b600181019050611b76565b5050565b601f821115611bd857611ba981611a89565b611bb284611a9b565b81016020851015611bc1578190505b611bd5611bcd85611a9b565b830182611b75565b50505b505050565b5f82821c905092915050565b5f611bf85f1984600802611bdd565b1980831691505092915050565b5f611c108383611be9565b9150826002028217905092915050565b611c2982610fdb565b67ffffffffffffffff811115611c4257611c4161127e565b5b611c4c825461180a565b611c57828285611b97565b5f60209050601f831160018114611c88575f8415611c76578287015190505b611c808582611c05565b865550611ce7565b601f198416611c9686611a89565b5f5b82811015611cbd57848901518255600182019150602085019450602081019050611c98565b86831015611cda5784890151611cd6601f891682611be9565b8355505b6001600288020188555050505b505050505050565b5f819050815f5260205f209050919050565b601f821115611d4257611d1381611cef565b611d1c84611a9b565b81016020851015611d2b578190505b611d3f611d3785611a9b565b830182611b75565b50505b505050565b611d508261104b565b67ffffffffffffffff811115611d6957611d6861127e565b5b611d73825461180a565b611d7e828285611d01565b5f60209050601f831160018114611daf575f8415611d9d578287015190505b611da78582611c05565b865550611e0e565b601f198416611dbd86611cef565b5f5b82811015611de457848901518255600182019150602085019450602081019050611dbf565b86831015611e015784890151611dfd601f891682611be9565b8355505b6001600288020188555050505b505050505050565b7f4e487b71000000000000000000000000000000000000000000000000000000005f52603260045260245ffd5b7f4e6f7420617070726f76656400000000000000000000000000000000000000005f82015250565b5f611e77600c83610fe5565b9150611e8282611e43565b602082019050919050565b5f6020820190508181035f830152611ea481611e6b565b9050919050565b7f496e73756666696369656e7420617070726f76616c73000000000000000000005f82015250565b5f611edf601683610fe5565b9150611eea82611eab565b602082019050919050565b5f6020820190508181035f830152611f0c81611ed3565b9050919050565b5f81905092915050565b5f8154611f298161180a565b611f338186611f13565b9450600182165f8114611f4d5760018114611f6257611f94565b60ff1983168652811515820286019350611f94565b611f6b85611cef565b5f5b83811015611f8c57815481890152600182019150602081019050611f6d565b838801955050505b50505092915050565b5f611fa88284611f1d565b915081905092915050565b7f457865637574696f6e206661696c6564000000000000000000000000000000005f82015250565b5f611fe7601083610fe5565b9150611ff282611fb3565b602082019050919050565b5f6020820190508181035f83015261201481611fdb565b905091905056fea26469706673582212207ef4c8df8d206f837f6f2d0f0c0191e51af8eb3d220231c9e2f72320252a6b2b64736f6c634300081c0033","linkReferences":{}},"methodIdentifiers":{"approveExecution(uint256)":"079c48a9","approvedBy(uint256,address)":"85667f1c","finalizeProposal(uint256)":"5652077c","hasVoted(uint256,address)":"43859632","multiSigApprovers(uint256)":"1ab2f92c","proposalCounter()":"0c0512e9","proposals(uint256)":"013cf08b","propose(string,bytes)":"d02b8976","requiredApprovals()":"99c1aadc","token()":"fc0c546a","uselessYul()":"65069bfc","vote(uint256)":"0121b93f"},"id":34}