{"abi":[{"type":"constructor","inputs":[{"name":"name","type":"string","internalType":"string"},{"name":"symbol","type":"string","internalType":"string"}],"stateMutability":"nonpayable"},{"type":"function","name":"approve","inputs":[{"name":"to","type":"address","internalType":"address"},{"name":"tokenId","type":"uint256","internalType":"uint256"}],"outputs":[],"stateMutability":"nonpayable"},{"type":"function","name":"balanceOf","inputs":[{"name":"owner","type":"address","internalType":"address"}],"outputs":[{"name":"","type":"uint256","internalType":"uint256"}],"stateMutability":"view"},{"type":"function","name":"castVote","inputs":[{"name":"proposalId","type":"uint256","internalType":"uint256"},{"name":"tokenId","type":"uint256","internalType":"uint256"}],"outputs":[{"name":"","type":"uint256","internalType":"uint256"}],"stateMutability":"nonpayable"},{"type":"function","name":"claimRoyalties","inputs":[{"name":"tokenId","type":"uint256","internalType":"uint256"}],"outputs":[],"stateMutability":"nonpayable"},{"type":"function","name":"delegate","inputs":[{"name":"to","type":"address","internalType":"address"}],"outputs":[],"stateMutability":"nonpayable"},{"type":"function","name":"delegateFractions","inputs":[{"name":"tokenId","type":"uint256","internalType":"uint256"},{"name":"to","type":"address","internalType":"address"},{"name":"amount","type":"uint256","internalType":"uint256"}],"outputs":[],"stateMutability":"nonpayable"},{"type":"function","name":"distributeRoyalties","inputs":[{"name":"tokenId","type":"uint256","internalType":"uint256"}],"outputs":[],"stateMutability":"payable"},{"type":"function","name":"getApproved","inputs":[{"name":"tokenId","type":"uint256","internalType":"uint256"}],"outputs":[{"name":"","type":"address","internalType":"address"}],"stateMutability":"view"},{"type":"function","name":"getFraction","inputs":[{"name":"tokenId","type":"uint256","internalType":"uint256"},{"name":"account","type":"address","internalType":"address"}],"outputs":[{"name":"owner","type":"address","internalType":"address"},{"name":"amount","type":"uint256","internalType":"uint256"},{"name":"isDelegate","type":"bool","internalType":"bool"},{"name":"delegatedTo","type":"address","internalType":"address"},{"name":"hasVoted","type":"bool","internalType":"bool"},{"name":"lastVoteTimestamp","type":"uint256","internalType":"uint256"}],"stateMutability":"view"},{"type":"function","name":"getMetadata","inputs":[{"name":"tokenId","type":"uint256","internalType":"uint256"}],"outputs":[{"name":"name","type":"string","internalType":"string"},{"name":"description","type":"string","internalType":"string"},{"name":"uri","type":"string","internalType":"string"},{"name":"royaltyPercentage","type":"uint256","internalType":"uint256"},{"name":"totalFractions","type":"uint256","internalType":"uint256"},{"name":"availableFractions","type":"uint256","internalType":"uint256"},{"name":"accumulatedRoyalties","type":"uint256","internalType":"uint256"},{"name":"isEligibleForRageQuit","type":"bool","internalType":"bool"}],"stateMutability":"view"},{"type":"function","name":"getVotingPower","inputs":[{"name":"account","type":"address","internalType":"address"}],"outputs":[{"name":"","type":"uint256","internalType":"uint256"}],"stateMutability":"view"},{"type":"function","name":"hasDelegated","inputs":[{"name":"","type":"address","internalType":"address"}],"outputs":[{"name":"","type":"bool","internalType":"bool"}],"stateMutability":"view"},{"type":"function","name":"hasVotedOnProposal","inputs":[{"name":"account","type":"address","internalType":"address"},{"name":"proposalId","type":"uint256","internalType":"uint256"}],"outputs":[{"name":"","type":"bool","internalType":"bool"}],"stateMutability":"view"},{"type":"function","name":"isApprovedForAll","inputs":[{"name":"owner","type":"address","internalType":"address"},{"name":"operator","type":"address","internalType":"address"}],"outputs":[{"name":"","type":"bool","internalType":"bool"}],"stateMutability":"view"},{"type":"function","name":"mint","inputs":[{"name":"to","type":"address","internalType":"address"},{"name":"tokenId","type":"uint256","internalType":"uint256"},{"name":"name","type":"string","internalType":"string"},{"name":"description","type":"string","internalType":"string"},{"name":"uri","type":"string","internalType":"string"},{"name":"royaltyPercentage","type":"uint256","internalType":"uint256"},{"name":"totalFractions","type":"uint256","internalType":"uint256"},{"name":"eligibleForRageQuit","type":"bool","internalType":"bool"}],"outputs":[],"stateMutability":"nonpayable"},{"type":"function","name":"name","inputs":[],"outputs":[{"name":"","type":"string","internalType":"string"}],"stateMutability":"view"},{"type":"function","name":"owner","inputs":[],"outputs":[{"name":"","type":"address","internalType":"address"}],"stateMutability":"view"},{"type":"function","name":"ownerOf","inputs":[{"name":"tokenId","type":"uint256","internalType":"uint256"}],"outputs":[{"name":"","type":"address","internalType":"address"}],"stateMutability":"view"},{"type":"function","name":"rageQuit","inputs":[],"outputs":[],"stateMutability":"nonpayable"},{"type":"function","name":"renounceOwnership","inputs":[],"outputs":[],"stateMutability":"nonpayable"},{"type":"function","name":"safeTransferFrom","inputs":[{"name":"from","type":"address","internalType":"address"},{"name":"to","type":"address","internalType":"address"},{"name":"tokenId","type":"uint256","internalType":"uint256"}],"outputs":[],"stateMutability":"nonpayable"},{"type":"function","name":"safeTransferFrom","inputs":[{"name":"from","type":"address","internalType":"address"},{"name":"to","type":"address","internalType":"address"},{"name":"tokenId","type":"uint256","internalType":"uint256"},{"name":"data","type":"bytes","internalType":"bytes"}],"outputs":[],"stateMutability":"nonpayable"},{"type":"function","name":"setApprovalForAll","inputs":[{"name":"operator","type":"address","internalType":"address"},{"name":"approved","type":"bool","internalType":"bool"}],"outputs":[],"stateMutability":"nonpayable"},{"type":"function","name":"supportsInterface","inputs":[{"name":"interfaceId","type":"bytes4","internalType":"bytes4"}],"outputs":[{"name":"","type":"bool","internalType":"bool"}],"stateMutability":"view"},{"type":"function","name":"symbol","inputs":[],"outputs":[{"name":"","type":"string","internalType":"string"}],"stateMutability":"view"},{"type":"function","name":"tokenByIndex","inputs":[{"name":"index","type":"uint256","internalType":"uint256"}],"outputs":[{"name":"","type":"uint256","internalType":"uint256"}],"stateMutability":"view"},{"type":"function","name":"tokenOfOwnerByIndex","inputs":[{"name":"owner","type":"address","internalType":"address"},{"name":"index","type":"uint256","internalType":"uint256"}],"outputs":[{"name":"","type":"uint256","internalType":"uint256"}],"stateMutability":"view"},{"type":"function","name":"tokenURI","inputs":[{"name":"tokenId","type":"uint256","internalType":"uint256"}],"outputs":[{"name":"","type":"string","internalType":"string"}],"stateMutability":"view"},{"type":"function","name":"totalSupply","inputs":[],"outputs":[{"name":"","type":"uint256","internalType":"uint256"}],"stateMutability":"view"},{"type":"function","name":"transferFractions","inputs":[{"name":"tokenId","type":"uint256","internalType":"uint256"},{"name":"to","type":"address","internalType":"address"},{"name":"amount","type":"uint256","internalType":"uint256"}],"outputs":[],"stateMutability":"nonpayable"},{"type":"function","name":"transferFrom","inputs":[{"name":"from","type":"address","internalType":"address"},{"name":"to","type":"address","internalType":"address"},{"name":"tokenId","type":"uint256","internalType":"uint256"}],"outputs":[],"stateMutability":"nonpayable"},{"type":"function","name":"transferOwnership","inputs":[{"name":"newOwner","type":"address","internalType":"address"}],"outputs":[],"stateMutability":"nonpayable"},{"type":"event","name":"Approval","inputs":[{"name":"owner","type":"address","indexed":true,"internalType":"address"},{"name":"approved","type":"address","indexed":true,"internalType":"address"},{"name":"tokenId","type":"uint256","indexed":true,"internalType":"uint256"}],"anonymous":false},{"type":"event","name":"ApprovalForAll","inputs":[{"name":"owner","type":"address","indexed":true,"internalType":"address"},{"name":"operator","type":"address","indexed":true,"internalType":"address"},{"name":"approved","type":"bool","indexed":false,"internalType":"bool"}],"anonymous":false},{"type":"event","name":"FractionDelegated","inputs":[{"name":"tokenId","type":"uint256","indexed":true,"internalType":"uint256"},{"name":"from","type":"address","indexed":true,"internalType":"address"},{"name":"to","type":"address","indexed":true,"internalType":"address"},{"name":"amount","type":"uint256","indexed":false,"internalType":"uint256"}],"anonymous":false},{"type":"event","name":"FractionTransferred","inputs":[{"name":"tokenId","type":"uint256","indexed":true,"internalType":"uint256"},{"name":"from","type":"address","indexed":true,"internalType":"address"},{"name":"to","type":"address","indexed":true,"internalType":"address"},{"name":"amount","type":"uint256","indexed":false,"internalType":"uint256"}],"anonymous":false},{"type":"event","name":"OwnershipTransferred","inputs":[{"name":"previousOwner","type":"address","indexed":true,"internalType":"address"},{"name":"newOwner","type":"address","indexed":true,"internalType":"address"}],"anonymous":false},{"type":"event","name":"RageQuit","inputs":[{"name":"member","type":"address","indexed":true,"internalType":"address"},{"name":"tokenIds","type":"uint256[]","indexed":false,"internalType":"uint256[]"}],"anonymous":false},{"type":"event","name":"RoyaltyDistributed","inputs":[{"name":"tokenId","type":"uint256","indexed":true,"internalType":"uint256"},{"name":"amount","type":"uint256","indexed":false,"internalType":"uint256"}],"anonymous":false},{"type":"event","name":"Transfer","inputs":[{"name":"from","type":"address","indexed":true,"internalType":"address"},{"name":"to","type":"address","indexed":true,"internalType":"address"},{"name":"tokenId","type":"uint256","indexed":true,"internalType":"uint256"}],"anonymous":false},{"type":"event","name":"VoteCast","inputs":[{"name":"voter","type":"address","indexed":true,"internalType":"address"},{"name":"proposalId","type":"uint256","indexed":true,"internalType":"uint256"},{"name":"votingPower","type":"uint256","indexed":false,"internalType":"uint256"}],"anonymous":false},{"type":"error","name":"ERC721EnumerableForbiddenBatchMint","inputs":[]},{"type":"error","name":"ERC721IncorrectOwner","inputs":[{"name":"sender","type":"address","internalType":"address"},{"name":"tokenId","type":"uint256","internalType":"uint256"},{"name":"owner","type":"address","internalType":"address"}]},{"type":"error","name":"ERC721InsufficientApproval","inputs":[{"name":"operator","type":"address","internalType":"address"},{"name":"tokenId","type":"uint256","internalType":"uint256"}]},{"type":"error","name":"ERC721InvalidApprover","inputs":[{"name":"approver","type":"address","internalType":"address"}]},{"type":"error","name":"ERC721InvalidOperator","inputs":[{"name":"operator","type":"address","internalType":"address"}]},{"type":"error","name":"ERC721InvalidOwner","inputs":[{"name":"owner","type":"address","internalType":"address"}]},{"type":"error","name":"ERC721InvalidReceiver","inputs":[{"name":"receiver","type":"address","internalType":"address"}]},{"type":"error","name":"ERC721InvalidSender","inputs":[{"name":"sender","type":"address","internalType":"address"}]},{"type":"error","name":"ERC721NonexistentToken","inputs":[{"name":"tokenId","type":"uint256","internalType":"uint256"}]},{"type":"error","name":"ERC721OutOfBoundsIndex","inputs":[{"name":"owner","type":"address","internalType":"address"},{"name":"index","type":"uint256","internalType":"uint256"}]},{"type":"error","name":"OwnableInvalidOwner","inputs":[{"name":"owner","type":"address","internalType":"address"}]},{"type":"error","name":"OwnableUnauthorizedAccount","inputs":[{"name":"account","type":"address","internalType":"address"}]}],"bytecode":{"object":"0x608060405234801561000f575f5ffd5b5060405161620c38038061620c833981810160405281019061003191906102ec565b338282815f90816100429190610572565b5080600190816100529190610572565b5050505f73ffffffffffffffffffffffffffffffffffffffff168173ffffffffffffffffffffffffffffffffffffffff16036100c5575f6040517f1e4fbdf70000000000000000000000000000000000000000000000000000000081526004016100bc9190610680565b60405180910390fd5b6100d4816100dc60201b60201c565b505050610699565b5f600a5f9054906101000a900473ffffffffffffffffffffffffffffffffffffffff16905081600a5f6101000a81548173ffffffffffffffffffffffffffffffffffffffff021916908373ffffffffffffffffffffffffffffffffffffffff1602179055508173ffffffffffffffffffffffffffffffffffffffff168173ffffffffffffffffffffffffffffffffffffffff167f8be0079c531659141344cd1fd0a4f28419497f9722a3daafe3b4186f6b6457e060405160405180910390a35050565b5f604051905090565b5f5ffd5b5f5ffd5b5f5ffd5b5f5ffd5b5f601f19601f8301169050919050565b7f4e487b71000000000000000000000000000000000000000000000000000000005f52604160045260245ffd5b6101fe826101b8565b810181811067ffffffffffffffff8211171561021d5761021c6101c8565b5b80604052505050565b5f61022f61019f565b905061023b82826101f5565b919050565b5f67ffffffffffffffff82111561025a576102596101c8565b5b610263826101b8565b9050602081019050919050565b8281835e5f83830152505050565b5f61029061028b84610240565b610226565b9050828152602081018484840111156102ac576102ab6101b4565b5b6102b7848285610270565b509392505050565b5f82601f8301126102d3576102d26101b0565b5b81516102e384826020860161027e565b91505092915050565b5f5f60408385031215610302576103016101a8565b5b5f83015167ffffffffffffffff81111561031f5761031e6101ac565b5b61032b858286016102bf565b925050602083015167ffffffffffffffff81111561034c5761034b6101ac565b5b610358858286016102bf565b9150509250929050565b5f81519050919050565b7f4e487b71000000000000000000000000000000000000000000000000000000005f52602260045260245ffd5b5f60028204905060018216806103b057607f821691505b6020821081036103c3576103c261036c565b5b50919050565b5f819050815f5260205f209050919050565b5f6020601f8301049050919050565b5f82821b905092915050565b5f600883026104257fffffffffffffffffffffffffffffffffffffffffffffffffffffffffffffffff826103ea565b61042f86836103ea565b95508019841693508086168417925050509392505050565b5f819050919050565b5f819050919050565b5f61047361046e61046984610447565b610450565b610447565b9050919050565b5f819050919050565b61048c83610459565b6104a06104988261047a565b8484546103f6565b825550505050565b5f5f905090565b6104b76104a8565b6104c2818484610483565b505050565b5b818110156104e5576104da5f826104af565b6001810190506104c8565b5050565b601f82111561052a576104fb816103c9565b610504846103db565b81016020851015610513578190505b61052761051f856103db565b8301826104c7565b50505b505050565b5f82821c905092915050565b5f61054a5f198460080261052f565b1980831691505092915050565b5f610562838361053b565b9150826002028217905092915050565b61057b82610362565b67ffffffffffffffff811115610594576105936101c8565b5b61059e8254610399565b6105a98282856104e9565b5f60209050601f8311600181146105da575f84156105c8578287015190505b6105d28582610557565b865550610639565b601f1984166105e8866103c9565b5f5b8281101561060f578489015182556001820191506020850194506020810190506105ea565b8683101561062c5784890151610628601f89168261053b565b8355505b6001600288020188555050505b505050505050565b5f73ffffffffffffffffffffffffffffffffffffffff82169050919050565b5f61066a82610641565b9050919050565b61067a81610660565b82525050565b5f6020820190506106935f830184610671565b92915050565b615b66806106a65f395ff3fe6080604052600436106101e2575f3560e01c8063715018a611610101578063b0ccbf8c11610094578063cd595ac211610063578063cd595ac214610715578063dd3e177014610756578063e985e9c51461077e578063f2fde38b146107ba576101e2565b8063b0ccbf8c1461065f578063b88d4fde14610675578063bb4d44361461069d578063c87b56dd146106d9576101e2565b806395d89b41116100d057806395d89b41146105ae578063a22cb465146105d8578063a574cea414610600578063b07cb36514610643576101e2565b8063715018a61461050a57806386ad310f146105205780638da5cb5b1461054857806390ae933714610572576101e2565b80632f745c59116101795780635c19a95c116101485780635c19a95c1461044257806361e58ed11461046a5780636352211e1461049257806370a08231146104ce576101e2565b80632f745c591461037a57806333eec834146103b657806342842e0e146103de5780634f6ccce714610406576101e2565b806318160ddd116101b557806318160ddd146102b057806323b872dd146102da5780632c0a3f89146103025780632da463851461033e576101e2565b806301ffc9a7146101e657806306fdde0314610222578063081812fc1461024c578063095ea7b314610288575b5f5ffd5b3480156101f1575f5ffd5b5061020c600480360381019061020791906143b8565b6107e2565b60405161021991906143fd565b60405180910390f35b34801561022d575f5ffd5b5061023661085b565b6040516102439190614486565b60405180910390f35b348015610257575f5ffd5b50610272600480360381019061026d91906144d9565b6108ea565b60405161027f9190614543565b60405180910390f35b348015610293575f5ffd5b506102ae60048036038101906102a99190614586565b610905565b005b3480156102bb575f5ffd5b506102c461091b565b6040516102d191906145d3565b60405180910390f35b3480156102e5575f5ffd5b5061030060048036038101906102fb91906145ec565b610927565b005b34801561030d575f5ffd5b506103286004803603810190610323919061463c565b610a26565b60405161033591906145d3565b60405180910390f35b348015610349575f5ffd5b50610364600480360381019061035f9190614586565b610cda565b60405161037191906143fd565b60405180910390f35b348015610385575f5ffd5b506103a0600480360381019061039b9190614586565b610d3c565b6040516103ad91906145d3565b60405180910390f35b3480156103c1575f5ffd5b506103dc60048036038101906103d791906147d0565b610de0565b005b3480156103e9575f5ffd5b5061040460048036038101906103ff91906145ec565b6110d5565b005b348015610411575f5ffd5b5061042c600480360381019061042791906144d9565b6110f4565b60405161043991906145d3565b60405180910390f35b34801561044d575f5ffd5b50610468600480360381019061046391906148d5565b611166565b005b348015610475575f5ffd5b50610490600480360381019061048b9190614900565b611248565b005b34801561049d575f5ffd5b506104b860048036038101906104b391906144d9565b611a66565b6040516104c59190614543565b60405180910390f35b3480156104d9575f5ffd5b506104f460048036038101906104ef91906148d5565b611a77565b60405161050191906145d3565b60405180910390f35b348015610515575f5ffd5b5061051e611b2d565b005b34801561052b575f5ffd5b50610546600480360381019061054191906144d9565b611b40565b005b348015610553575f5ffd5b5061055c611dd1565b6040516105699190614543565b60405180910390f35b34801561057d575f5ffd5b50610598600480360381019061059391906148d5565b611df9565b6040516105a591906143fd565b60405180910390f35b3480156105b9575f5ffd5b506105c2611e16565b6040516105cf9190614486565b60405180910390f35b3480156105e3575f5ffd5b506105fe60048036038101906105f99190614950565b611ea6565b005b34801561060b575f5ffd5b50610626600480360381019061062191906144d9565b611ebc565b60405161063a98979695949392919061498e565b60405180910390f35b61065d600480360381019061065891906144d9565b61210c565b005b34801561066a575f5ffd5b506106736121fe565b005b348015610680575f5ffd5b5061069b60048036038101906106969190614abd565b612591565b005b3480156106a8575f5ffd5b506106c360048036038101906106be91906148d5565b6125b6565b6040516106d091906145d3565b60405180910390f35b3480156106e4575f5ffd5b506106ff60048036038101906106fa91906144d9565b6125fc565b60405161070c9190614486565b60405180910390f35b348015610720575f5ffd5b5061073b60048036038101906107369190614b3d565b6126e8565b60405161074d96959493929190614b7b565b60405180910390f35b348015610761575f5ffd5b5061077c60048036038101906107779190614900565b612811565b005b348015610789575f5ffd5b506107a4600480360381019061079f9190614bda565b612ef6565b6040516107b191906143fd565b60405180910390f35b3480156107c5575f5ffd5b506107e060048036038101906107db91906148d5565b612f84565b005b5f7f780e9d63000000000000000000000000000000000000000000000000000000007bffffffffffffffffffffffffffffffffffffffffffffffffffffffff1916827bffffffffffffffffffffffffffffffffffffffffffffffffffffffff19161480610854575061085382613008565b5b9050919050565b60605f805461086990614c45565b80601f016020809104026020016040519081016040528092919081815260200182805461089590614c45565b80156108e05780601f106108b7576101008083540402835291602001916108e0565b820191905f5260205f20905b8154815290600101906020018083116108c357829003601f168201915b5050505050905090565b5f6108f4826130e9565b506108fe8261316f565b9050919050565b61091782826109126131a8565b6131af565b5050565b5f600880549050905090565b5f73ffffffffffffffffffffffffffffffffffffffff168273ffffffffffffffffffffffffffffffffffffffff1603610997575f6040517f64a0ae9200000000000000000000000000000000000000000000000000000000815260040161098e9190614543565b60405180910390fd5b5f6109aa83836109a56131a8565b6131c1565b90508373ffffffffffffffffffffffffffffffffffffffff168173ffffffffffffffffffffffffffffffffffffffff1614610a20578382826040517f64283d7b000000000000000000000000000000000000000000000000000000008152600401610a1793929190614c75565b60405180910390fd5b50505050565b5f610a30826132db565b610a6f576040517f08c379a0000000000000000000000000000000000000000000000000000000008152600401610a6690614cf4565b60405180910390fd5b60105f3373ffffffffffffffffffffffffffffffffffffffff1673ffffffffffffffffffffffffffffffffffffffff1681526020019081526020015f205f8481526020019081526020015f205f9054906101000a900460ff1615610b08576040517f08c379a0000000000000000000000000000000000000000000000000000000008152600401610aff90614d5c565b60405180910390fd5b5f600b5f8481526020019081526020015f205f3373ffffffffffffffffffffffffffffffffffffffff1673ffffffffffffffffffffffffffffffffffffffff1681526020019081526020015f2090505f816001015411610b9d576040517f08c379a0000000000000000000000000000000000000000000000000000000008152600401610b9490614dc4565b60405180910390fd5b8060020160159054906101000a900460ff1615610bef576040517f08c379a0000000000000000000000000000000000000000000000000000000008152600401610be690614e52565b60405180910390fd5b60018160020160156101000a81548160ff021916908315150217905550428160030181905550600160105f3373ffffffffffffffffffffffffffffffffffffffff1673ffffffffffffffffffffffffffffffffffffffff1681526020019081526020015f205f8681526020019081526020015f205f6101000a81548160ff021916908315150217905550833373ffffffffffffffffffffffffffffffffffffffff167fb4cfecf70861b7b150d8337780d34fb4cbc2114b5fb1fe51a5c5fca1849f72748360010154604051610cc491906145d3565b60405180910390a3806001015491505092915050565b5f60105f8473ffffffffffffffffffffffffffffffffffffffff1673ffffffffffffffffffffffffffffffffffffffff1681526020019081526020015f205f8381526020019081526020015f205f9054906101000a900460ff16905092915050565b5f610d4683611a77565b8210610d8b5782826040517fa57d13dc000000000000000000000000000000000000000000000000000000008152600401610d82929190614e70565b60405180910390fd5b60065f8473ffffffffffffffffffffffffffffffffffffffff1673ffffffffffffffffffffffffffffffffffffffff1681526020019081526020015f205f8381526020019081526020015f2054905092915050565b610de861331b565b610df288886133a2565b6040518061010001604052808781526020018681526020018581526020018481526020018381526020018381526020015f8152602001821515815250600d5f8981526020019081526020015f205f820151815f019081610e529190615037565b506020820151816001019081610e689190615037565b506040820151816002019081610e7e9190615037565b50606082015181600301556080820151816004015560a0820151816005015560c0820151816006015560e0820151816007015f6101000a81548160ff0219169083151502179055509050506040518060c001604052808973ffffffffffffffffffffffffffffffffffffffff1681526020018381526020015f151581526020015f73ffffffffffffffffffffffffffffffffffffffff1681526020015f151581526020015f815250600b5f8981526020019081526020015f205f8a73ffffffffffffffffffffffffffffffffffffffff1673ffffffffffffffffffffffffffffffffffffffff1681526020019081526020015f205f820151815f015f6101000a81548173ffffffffffffffffffffffffffffffffffffffff021916908373ffffffffffffffffffffffffffffffffffffffff160217905550602082015181600101556040820151816002015f6101000a81548160ff02191690831515021790555060608201518160020160016101000a81548173ffffffffffffffffffffffffffffffffffffffff021916908373ffffffffffffffffffffffffffffffffffffffff16021790555060808201518160020160156101000a81548160ff02191690831515021790555060a08201518160030155905050600c5f8881526020019081526020015f2088908060018154018082558091505060019003905f5260205f20015f9091909190916101000a81548173ffffffffffffffffffffffffffffffffffffffff021916908373ffffffffffffffffffffffffffffffffffffffff1602179055506110cb886133bf565b5050505050505050565b6110ef83838360405180602001604052805f815250612591565b505050565b5f6110fd61091b565b8210611142575f826040517fa57d13dc000000000000000000000000000000000000000000000000000000008152600401611139929190614e70565b60405180910390fd5b6008828154811061115657611155615106565b5b905f5260205f2001549050919050565b60115f3373ffffffffffffffffffffffffffffffffffffffff1673ffffffffffffffffffffffffffffffffffffffff1681526020019081526020015f205f9054906101000a900460ff16156111f0576040517f08c379a00000000000000000000000000000000000000000000000000000000081526004016111e79061517d565b60405180910390fd5b600160115f3373ffffffffffffffffffffffffffffffffffffffff1673ffffffffffffffffffffffffffffffffffffffff1681526020019081526020015f205f6101000a81548160ff02191690831515021790555050565b611251836132db565b611290576040517f08c379a000000000000000000000000000000000000000000000000000000000815260040161128790614cf4565b60405180910390fd5b5f73ffffffffffffffffffffffffffffffffffffffff168273ffffffffffffffffffffffffffffffffffffffff16036112fe576040517f08c379a00000000000000000000000000000000000000000000000000000000081526004016112f5906151e5565b60405180910390fd5b3373ffffffffffffffffffffffffffffffffffffffff168273ffffffffffffffffffffffffffffffffffffffff160361136c576040517f08c379a00000000000000000000000000000000000000000000000000000000081526004016113639061524d565b60405180910390fd5b5f81116113ae576040517f08c379a00000000000000000000000000000000000000000000000000000000081526004016113a5906152b5565b60405180910390fd5b5f600b5f8581526020019081526020015f205f3373ffffffffffffffffffffffffffffffffffffffff1673ffffffffffffffffffffffffffffffffffffffff1681526020019081526020015f2090503373ffffffffffffffffffffffffffffffffffffffff16815f015f9054906101000a900473ffffffffffffffffffffffffffffffffffffffff1673ffffffffffffffffffffffffffffffffffffffff161461148d576040517f08c379a00000000000000000000000000000000000000000000000000000000081526004016114849061531d565b60405180910390fd5b81816001015410156114d4576040517f08c379a00000000000000000000000000000000000000000000000000000000081526004016114cb90615385565b60405180910390fd5b8060020160159054906101000a900460ff1615611526576040517f08c379a000000000000000000000000000000000000000000000000000000000815260040161151d906153ed565b60405180910390fd5b5f73ffffffffffffffffffffffffffffffffffffffff168160020160019054906101000a900473ffffffffffffffffffffffffffffffffffffffff1673ffffffffffffffffffffffffffffffffffffffff16146115b8576040517f08c379a00000000000000000000000000000000000000000000000000000000081526004016115af9061517d565b60405180910390fd5b8181600101546115c89190615438565b8160010181905550828160020160016101000a81548173ffffffffffffffffffffffffffffffffffffffff021916908373ffffffffffffffffffffffffffffffffffffffff1602179055505f73ffffffffffffffffffffffffffffffffffffffff16600b5f8681526020019081526020015f205f8573ffffffffffffffffffffffffffffffffffffffff1673ffffffffffffffffffffffffffffffffffffffff1681526020019081526020015f205f015f9054906101000a900473ffffffffffffffffffffffffffffffffffffffff1673ffffffffffffffffffffffffffffffffffffffff16036118ae576040518060c001604052808473ffffffffffffffffffffffffffffffffffffffff1681526020015f81526020016001151581526020015f73ffffffffffffffffffffffffffffffffffffffff1681526020015f151581526020015f815250600b5f8681526020019081526020015f205f8573ffffffffffffffffffffffffffffffffffffffff1673ffffffffffffffffffffffffffffffffffffffff1681526020019081526020015f205f820151815f015f6101000a81548173ffffffffffffffffffffffffffffffffffffffff021916908373ffffffffffffffffffffffffffffffffffffffff160217905550602082015181600101556040820151816002015f6101000a81548160ff02191690831515021790555060608201518160020160016101000a81548173ffffffffffffffffffffffffffffffffffffffff021916908373ffffffffffffffffffffffffffffffffffffffff16021790555060808201518160020160156101000a81548160ff02191690831515021790555060a08201518160030155905050600c5f8581526020019081526020015f2083908060018154018082558091505060019003905f5260205f20015f9091909190916101000a81548173ffffffffffffffffffffffffffffffffffffffff021916908373ffffffffffffffffffffffffffffffffffffffff1602179055505b81600b5f8681526020019081526020015f205f8573ffffffffffffffffffffffffffffffffffffffff1673ffffffffffffffffffffffffffffffffffffffff1681526020019081526020015f2060010154611909919061546b565b600b5f8681526020019081526020015f205f8573ffffffffffffffffffffffffffffffffffffffff1673ffffffffffffffffffffffffffffffffffffffff1681526020019081526020015f206001018190555082600b5f8681526020019081526020015f205f8573ffffffffffffffffffffffffffffffffffffffff1673ffffffffffffffffffffffffffffffffffffffff1681526020019081526020015f205f015f6101000a81548173ffffffffffffffffffffffffffffffffffffffff021916908373ffffffffffffffffffffffffffffffffffffffff1602179055506119f1336133bf565b6119fa836133bf565b8273ffffffffffffffffffffffffffffffffffffffff163373ffffffffffffffffffffffffffffffffffffffff16857fa0694176d1dadf0186f8310fc7b4b3dda1ab798e262c8b9993a41962ac2b379a85604051611a5891906145d3565b60405180910390a450505050565b5f611a70826130e9565b9050919050565b5f5f73ffffffffffffffffffffffffffffffffffffffff168273ffffffffffffffffffffffffffffffffffffffff1603611ae8575f6040517f89c62b64000000000000000000000000000000000000000000000000000000008152600401611adf9190614543565b60405180910390fd5b60035f8373ffffffffffffffffffffffffffffffffffffffff1673ffffffffffffffffffffffffffffffffffffffff1681526020019081526020015f20549050919050565b611b3561331b565b611b3e5f6134c2565b565b611b49816132db565b611b88576040517f08c379a0000000000000000000000000000000000000000000000000000000008152600401611b7f90614cf4565b60405180910390fd5b5f600b5f8381526020019081526020015f205f3373ffffffffffffffffffffffffffffffffffffffff1673ffffffffffffffffffffffffffffffffffffffff1681526020019081526020015f2090503373ffffffffffffffffffffffffffffffffffffffff16815f015f9054906101000a900473ffffffffffffffffffffffffffffffffffffffff1673ffffffffffffffffffffffffffffffffffffffff1614611c67576040517f08c379a0000000000000000000000000000000000000000000000000000000008152600401611c5e9061531d565b60405180910390fd5b5f816001015411611cad576040517f08c379a0000000000000000000000000000000000000000000000000000000008152600401611ca4906154e8565b60405180910390fd5b5f600d5f8481526020019081526020015f2090505f816006015411611d07576040517f08c379a0000000000000000000000000000000000000000000000000000000008152600401611cfe90615550565b60405180910390fd5b5f816004015483600101548360060154611d21919061556e565b611d2b91906155dc565b90505f8111611d6f576040517f08c379a0000000000000000000000000000000000000000000000000000000008152600401611d6690615656565b60405180910390fd5b808260060154611d7f9190615438565b82600601819055503373ffffffffffffffffffffffffffffffffffffffff166108fc8290811502906040515f60405180830381858888f19350505050158015611dca573d5f5f3e3d5ffd5b5050505050565b5f600a5f9054906101000a900473ffffffffffffffffffffffffffffffffffffffff16905090565b6011602052805f5260405f205f915054906101000a900460ff1681565b606060018054611e2590614c45565b80601f0160208091040260200160405190810160405280929190818152602001828054611e5190614c45565b8015611e9c5780601f10611e7357610100808354040283529160200191611e9c565b820191905f5260205f20905b815481529060010190602001808311611e7f57829003601f168201915b5050505050905090565b611eb8611eb16131a8565b8383613585565b5050565b60608060605f5f5f5f5f611ecf896132db565b611f0e576040517f08c379a0000000000000000000000000000000000000000000000000000000008152600401611f0590614cf4565b60405180910390fd5b5f600d5f8b81526020019081526020015f209050805f0181600101826002018360030154846004015485600501548660060154876007015f9054906101000a900460ff16878054611f5e90614c45565b80601f0160208091040260200160405190810160405280929190818152602001828054611f8a90614c45565b8015611fd55780601f10611fac57610100808354040283529160200191611fd5565b820191905f5260205f20905b815481529060010190602001808311611fb857829003601f168201915b50505050509750868054611fe890614c45565b80601f016020809104026020016040519081016040528092919081815260200182805461201490614c45565b801561205f5780601f106120365761010080835404028352916020019161205f565b820191905f5260205f20905b81548152906001019060200180831161204257829003601f168201915b5050505050965085805461207290614c45565b80601f016020809104026020016040519081016040528092919081815260200182805461209e90614c45565b80156120e95780601f106120c0576101008083540402835291602001916120e9565b820191905f5260205f20905b8154815290600101906020018083116120cc57829003601f168201915b505050505095509850985098509850985098509850985050919395975091939597565b612115816132db565b612154576040517f08c379a000000000000000000000000000000000000000000000000000000000815260040161214b90614cf4565b60405180910390fd5b5f3411612196576040517f08c379a000000000000000000000000000000000000000000000000000000000815260040161218d906156be565b60405180910390fd5b5f600d5f8381526020019081526020015f2090503481600601546121ba919061546b565b8160060181905550817f8ed3543c92c7106a56f0a6cdaa716fef62211f99d6630ecd4dc1231d9edae811346040516121f291906145d3565b60405180910390a25050565b600e5f3373ffffffffffffffffffffffffffffffffffffffff1673ffffffffffffffffffffffffffffffffffffffff1681526020019081526020015f205f9054906101000a900460ff1615612288576040517f08c379a000000000000000000000000000000000000000000000000000000000815260040161227f90615726565b60405180910390fd5b5f61229161091b565b67ffffffffffffffff8111156122aa576122a9614682565b5b6040519080825280602002602001820160405280156122d85781602001602082028036833780820191505090505b5090505f5f90505f5f90505b6122ec61091b565b811015612460575f6122fd826110f4565b9050600d5f8281526020019081526020015f206007015f9054906101000a900460ff1680156123c457503373ffffffffffffffffffffffffffffffffffffffff16600b5f8381526020019081526020015f205f3373ffffffffffffffffffffffffffffffffffffffff1673ffffffffffffffffffffffffffffffffffffffff1681526020019081526020015f205f015f9054906101000a900473ffffffffffffffffffffffffffffffffffffffff1673ffffffffffffffffffffffffffffffffffffffff16145b801561241e57505f600b5f8381526020019081526020015f205f3373ffffffffffffffffffffffffffffffffffffffff1673ffffffffffffffffffffffffffffffffffffffff1681526020019081526020015f2060010154115b15612452578084848151811061243757612436615106565b5b602002602001018181525050828061244e90615744565b9350505b5080806001019150506122e4565b508082525f81116124a6576040517f08c379a000000000000000000000000000000000000000000000000000000000815260040161249d906157d5565b60405180910390fd5b5f5f90505b818110156124e9575f8382815181106124c7576124c6615106565b5b602002602001015190506124db33826136ee565b5080806001019150506124ab565b506001600e5f3373ffffffffffffffffffffffffffffffffffffffff1673ffffffffffffffffffffffffffffffffffffffff1681526020019081526020015f205f6101000a81548160ff0219169083151502179055503373ffffffffffffffffffffffffffffffffffffffff167f85711a53a13cae7bd547915c21bc660d3c79772e0ac59cf58b820e42423d05e08360405161258591906158aa565b60405180910390a25050565b61259c848484610927565b6125b06125a76131a8565b85858585613842565b50505050565b5f600f5f8373ffffffffffffffffffffffffffffffffffffffff1673ffffffffffffffffffffffffffffffffffffffff1681526020019081526020015f20549050919050565b6060612607826132db565b612646576040517f08c379a000000000000000000000000000000000000000000000000000000000815260040161263d90614cf4565b60405180910390fd5b600d5f8381526020019081526020015f20600201805461266590614c45565b80601f016020809104026020016040519081016040528092919081815260200182805461269190614c45565b80156126dc5780601f106126b3576101008083540402835291602001916126dc565b820191905f5260205f20905b8154815290600101906020018083116126bf57829003601f168201915b50505050509050919050565b5f5f5f5f5f5f6126f7886132db565b612736576040517f08c379a000000000000000000000000000000000000000000000000000000000815260040161272d90614cf4565b60405180910390fd5b5f600b5f8a81526020019081526020015f205f8973ffffffffffffffffffffffffffffffffffffffff1673ffffffffffffffffffffffffffffffffffffffff1681526020019081526020015f209050805f015f9054906101000a900473ffffffffffffffffffffffffffffffffffffffff168160010154826002015f9054906101000a900460ff168360020160019054906101000a900473ffffffffffffffffffffffffffffffffffffffff168460020160159054906101000a900460ff168560030154965096509650965096509650509295509295509295565b61281a836132db565b612859576040517f08c379a000000000000000000000000000000000000000000000000000000000815260040161285090614cf4565b60405180910390fd5b5f73ffffffffffffffffffffffffffffffffffffffff168273ffffffffffffffffffffffffffffffffffffffff16036128c7576040517f08c379a00000000000000000000000000000000000000000000000000000000081526004016128be90615914565b60405180910390fd5b5f8111612909576040517f08c379a0000000000000000000000000000000000000000000000000000000008152600401612900906152b5565b60405180910390fd5b5f600b5f8581526020019081526020015f205f3373ffffffffffffffffffffffffffffffffffffffff1673ffffffffffffffffffffffffffffffffffffffff1681526020019081526020015f2090503373ffffffffffffffffffffffffffffffffffffffff16815f015f9054906101000a900473ffffffffffffffffffffffffffffffffffffffff1673ffffffffffffffffffffffffffffffffffffffff16146129e8576040517f08c379a00000000000000000000000000000000000000000000000000000000081526004016129df9061531d565b60405180910390fd5b8181600101541015612a2f576040517f08c379a0000000000000000000000000000000000000000000000000000000008152600401612a2690615385565b60405180910390fd5b8060020160159054906101000a900460ff1615612a81576040517f08c379a0000000000000000000000000000000000000000000000000000000008152600401612a789061597c565b60405180910390fd5b5f73ffffffffffffffffffffffffffffffffffffffff168160020160019054906101000a900473ffffffffffffffffffffffffffffffffffffffff1673ffffffffffffffffffffffffffffffffffffffff1614612b13576040517f08c379a0000000000000000000000000000000000000000000000000000000008152600401612b0a90615a0a565b60405180910390fd5b818160010154612b239190615438565b81600101819055505f73ffffffffffffffffffffffffffffffffffffffff16600b5f8681526020019081526020015f205f8573ffffffffffffffffffffffffffffffffffffffff1673ffffffffffffffffffffffffffffffffffffffff1681526020019081526020015f205f015f9054906101000a900473ffffffffffffffffffffffffffffffffffffffff1673ffffffffffffffffffffffffffffffffffffffff1603612dc9576040518060c001604052808473ffffffffffffffffffffffffffffffffffffffff1681526020018381526020015f151581526020015f73ffffffffffffffffffffffffffffffffffffffff1681526020015f151581526020015f815250600b5f8681526020019081526020015f205f8573ffffffffffffffffffffffffffffffffffffffff1673ffffffffffffffffffffffffffffffffffffffff1681526020019081526020015f205f820151815f015f6101000a81548173ffffffffffffffffffffffffffffffffffffffff021916908373ffffffffffffffffffffffffffffffffffffffff160217905550602082015181600101556040820151816002015f6101000a81548160ff02191690831515021790555060608201518160020160016101000a81548173ffffffffffffffffffffffffffffffffffffffff021916908373ffffffffffffffffffffffffffffffffffffffff16021790555060808201518160020160156101000a81548160ff02191690831515021790555060a08201518160030155905050600c5f8581526020019081526020015f2083908060018154018082558091505060019003905f5260205f20015f9091909190916101000a81548173ffffffffffffffffffffffffffffffffffffffff021916908373ffffffffffffffffffffffffffffffffffffffff160217905550612e78565b81600b5f8681526020019081526020015f205f8573ffffffffffffffffffffffffffffffffffffffff1673ffffffffffffffffffffffffffffffffffffffff1681526020019081526020015f2060010154612e24919061546b565b600b5f8681526020019081526020015f205f8573ffffffffffffffffffffffffffffffffffffffff1673ffffffffffffffffffffffffffffffffffffffff1681526020019081526020015f20600101819055505b612e81336133bf565b612e8a836133bf565b8273ffffffffffffffffffffffffffffffffffffffff163373ffffffffffffffffffffffffffffffffffffffff16857f7ff67dbbdeb398bca52908d00dd27b952f03cbe7657eb5dac8138dacf2b52b3f85604051612ee891906145d3565b60405180910390a450505050565b5f60055f8473ffffffffffffffffffffffffffffffffffffffff1673ffffffffffffffffffffffffffffffffffffffff1681526020019081526020015f205f8373ffffffffffffffffffffffffffffffffffffffff1673ffffffffffffffffffffffffffffffffffffffff1681526020019081526020015f205f9054906101000a900460ff16905092915050565b612f8c61331b565b5f73ffffffffffffffffffffffffffffffffffffffff168173ffffffffffffffffffffffffffffffffffffffff1603612ffc575f6040517f1e4fbdf7000000000000000000000000000000000000000000000000000000008152600401612ff39190614543565b60405180910390fd5b613005816134c2565b50565b5f7f80ac58cd000000000000000000000000000000000000000000000000000000007bffffffffffffffffffffffffffffffffffffffffffffffffffffffff1916827bffffffffffffffffffffffffffffffffffffffffffffffffffffffff191614806130d257507f5b5e139f000000000000000000000000000000000000000000000000000000007bffffffffffffffffffffffffffffffffffffffffffffffffffffffff1916827bffffffffffffffffffffffffffffffffffffffffffffffffffffffff1916145b806130e257506130e1826139ee565b5b9050919050565b5f5f6130f483613a57565b90505f73ffffffffffffffffffffffffffffffffffffffff168173ffffffffffffffffffffffffffffffffffffffff160361316657826040517f7e27328900000000000000000000000000000000000000000000000000000000815260040161315d91906145d3565b60405180910390fd5b80915050919050565b5f60045f8381526020019081526020015f205f9054906101000a900473ffffffffffffffffffffffffffffffffffffffff169050919050565b5f33905090565b6131bc8383836001613a90565b505050565b5f5f6131ce858585613c4f565b90505f73ffffffffffffffffffffffffffffffffffffffff168173ffffffffffffffffffffffffffffffffffffffff16036132115761320c84613e5a565b613250565b8473ffffffffffffffffffffffffffffffffffffffff168173ffffffffffffffffffffffffffffffffffffffff161461324f5761324e8185613e9e565b5b5b5f73ffffffffffffffffffffffffffffffffffffffff168573ffffffffffffffffffffffffffffffffffffffff16036132915761328c84613f75565b6132d0565b8473ffffffffffffffffffffffffffffffffffffffff168173ffffffffffffffffffffffffffffffffffffffff16146132cf576132ce8585614035565b5b5b809150509392505050565b5f5f73ffffffffffffffffffffffffffffffffffffffff166132fc83611a66565b73ffffffffffffffffffffffffffffffffffffffff1614159050919050565b6133236131a8565b73ffffffffffffffffffffffffffffffffffffffff16613341611dd1565b73ffffffffffffffffffffffffffffffffffffffff16146133a0576133646131a8565b6040517f118cdaa70000000000000000000000000000000000000000000000000000000081526004016133979190614543565b60405180910390fd5b565b6133bb828260405180602001604052805f8152506140b9565b5050565b5f5f90505f5f90505b6133d061091b565b81101561347b575f6133e1826110f4565b90505f600b5f8381526020019081526020015f205f8673ffffffffffffffffffffffffffffffffffffffff1673ffffffffffffffffffffffffffffffffffffffff1681526020019081526020015f2090505f816001015411801561345457508060020160159054906101000a900460ff16155b1561346c57806001015484613469919061546b565b93505b505080806001019150506133c8565b5080600f5f8473ffffffffffffffffffffffffffffffffffffffff1673ffffffffffffffffffffffffffffffffffffffff1681526020019081526020015f20819055505050565b5f600a5f9054906101000a900473ffffffffffffffffffffffffffffffffffffffff16905081600a5f6101000a81548173ffffffffffffffffffffffffffffffffffffffff021916908373ffffffffffffffffffffffffffffffffffffffff1602179055508173ffffffffffffffffffffffffffffffffffffffff168173ffffffffffffffffffffffffffffffffffffffff167f8be0079c531659141344cd1fd0a4f28419497f9722a3daafe3b4186f6b6457e060405160405180910390a35050565b5f73ffffffffffffffffffffffffffffffffffffffff168273ffffffffffffffffffffffffffffffffffffffff16036135f557816040517f5b08ba180000000000000000000000000000000000000000000000000000000081526004016135ec9190614543565b60405180910390fd5b8060055f8573ffffffffffffffffffffffffffffffffffffffff1673ffffffffffffffffffffffffffffffffffffffff1681526020019081526020015f205f8473ffffffffffffffffffffffffffffffffffffffff1673ffffffffffffffffffffffffffffffffffffffff1681526020019081526020015f205f6101000a81548160ff0219169083151502179055508173ffffffffffffffffffffffffffffffffffffffff168373ffffffffffffffffffffffffffffffffffffffff167f17307eab39ab6107e8899845ad3d59bd9653f200f220920489ca2b5937696c31836040516136e191906143fd565b60405180910390a3505050565b5f600b5f8381526020019081526020015f205f8473ffffffffffffffffffffffffffffffffffffffff1673ffffffffffffffffffffffffffffffffffffffff1681526020019081526020015f2090508273ffffffffffffffffffffffffffffffffffffffff16815f015f9054906101000a900473ffffffffffffffffffffffffffffffffffffffff1673ffffffffffffffffffffffffffffffffffffffff16146137cd576040517f08c379a00000000000000000000000000000000000000000000000000000000081526004016137c49061531d565b60405180910390fd5b5f816001015490505f826001018190555060018260020160156101000a81548160ff02191690831515021790555080600d5f8581526020019081526020015f206005015461381b9190615438565b600d5f8581526020019081526020015f206005018190555061383c846133bf565b50505050565b5f8373ffffffffffffffffffffffffffffffffffffffff163b11156139e7578273ffffffffffffffffffffffffffffffffffffffff1663150b7a02868685856040518563ffffffff1660e01b81526004016138a09493929190615a7a565b6020604051808303815f875af19250505080156138db57506040513d601f19601f820116820180604052508101906138d89190615ad8565b60015b61395c573d805f8114613909576040519150601f19603f3d011682016040523d82523d5f602084013e61390e565b606091505b505f81510361395457836040517f64a0ae9200000000000000000000000000000000000000000000000000000000815260040161394b9190614543565b60405180910390fd5b805181602001fd5b63150b7a0260e01b7bffffffffffffffffffffffffffffffffffffffffffffffffffffffff1916817bffffffffffffffffffffffffffffffffffffffffffffffffffffffff1916146139e557836040517f64a0ae920000000000000000000000000000000000000000000000000000000081526004016139dc9190614543565b60405180910390fd5b505b5050505050565b5f7f01ffc9a7000000000000000000000000000000000000000000000000000000007bffffffffffffffffffffffffffffffffffffffffffffffffffffffff1916827bffffffffffffffffffffffffffffffffffffffffffffffffffffffff1916149050919050565b5f60025f8381526020019081526020015f205f9054906101000a900473ffffffffffffffffffffffffffffffffffffffff169050919050565b8080613ac857505f73ffffffffffffffffffffffffffffffffffffffff168273ffffffffffffffffffffffffffffffffffffffff1614155b15613bfa575f613ad7846130e9565b90505f73ffffffffffffffffffffffffffffffffffffffff168373ffffffffffffffffffffffffffffffffffffffff1614158015613b4157508273ffffffffffffffffffffffffffffffffffffffff168173ffffffffffffffffffffffffffffffffffffffff1614155b8015613b545750613b528184612ef6565b155b15613b9657826040517fa9fbf51f000000000000000000000000000000000000000000000000000000008152600401613b8d9190614543565b60405180910390fd5b8115613bf857838573ffffffffffffffffffffffffffffffffffffffff168273ffffffffffffffffffffffffffffffffffffffff167f8c5be1e5ebec7d5bd14f71427d1e84f3dd0314c0f7b2291e5b200ac8c7c3b92560405160405180910390a45b505b8360045f8581526020019081526020015f205f6101000a81548173ffffffffffffffffffffffffffffffffffffffff021916908373ffffffffffffffffffffffffffffffffffffffff16021790555050505050565b5f5f613c5a84613a57565b90505f73ffffffffffffffffffffffffffffffffffffffff168373ffffffffffffffffffffffffffffffffffffffff1614613c9b57613c9a8184866140dc565b5b5f73ffffffffffffffffffffffffffffffffffffffff168173ffffffffffffffffffffffffffffffffffffffff1614613d2657613cda5f855f5f613a90565b600160035f8373ffffffffffffffffffffffffffffffffffffffff1673ffffffffffffffffffffffffffffffffffffffff1681526020019081526020015f205f82825403925050819055505b5f73ffffffffffffffffffffffffffffffffffffffff168573ffffffffffffffffffffffffffffffffffffffff1614613da557600160035f8773ffffffffffffffffffffffffffffffffffffffff1673ffffffffffffffffffffffffffffffffffffffff1681526020019081526020015f205f82825401925050819055505b8460025f8681526020019081526020015f205f6101000a81548173ffffffffffffffffffffffffffffffffffffffff021916908373ffffffffffffffffffffffffffffffffffffffff160217905550838573ffffffffffffffffffffffffffffffffffffffff168273ffffffffffffffffffffffffffffffffffffffff167fddf252ad1be2c89b69c2b068fc378daa952ba7f163c4a11628f55a4df523b3ef60405160405180910390a4809150509392505050565b60088054905060095f8381526020019081526020015f2081905550600881908060018154018082558091505060019003905f5260205f20015f909190919091505550565b5f613ea883611a77565b90505f60075f8481526020019081526020015f205490505f60065f8673ffffffffffffffffffffffffffffffffffffffff1673ffffffffffffffffffffffffffffffffffffffff1681526020019081526020015f209050828214613f47575f815f8581526020019081526020015f2054905080825f8581526020019081526020015f20819055508260075f8381526020019081526020015f2081905550505b60075f8581526020019081526020015f205f9055805f8481526020019081526020015f205f90555050505050565b5f6001600880549050613f889190615438565b90505f60095f8481526020019081526020015f205490505f60088381548110613fb457613fb3615106565b5b905f5260205f20015490508060088381548110613fd457613fd3615106565b5b905f5260205f2001819055508160095f8381526020019081526020015f208190555060095f8581526020019081526020015f205f9055600880548061401c5761401b615b03565b5b600190038181905f5260205f20015f9055905550505050565b5f600161404184611a77565b61404b9190615438565b90508160065f8573ffffffffffffffffffffffffffffffffffffffff1673ffffffffffffffffffffffffffffffffffffffff1681526020019081526020015f205f8381526020019081526020015f20819055508060075f8481526020019081526020015f2081905550505050565b6140c3838361419f565b6140d76140ce6131a8565b5f858585613842565b505050565b6140e7838383614292565b61419a575f73ffffffffffffffffffffffffffffffffffffffff168373ffffffffffffffffffffffffffffffffffffffff160361415b57806040517f7e27328900000000000000000000000000000000000000000000000000000000815260040161415291906145d3565b60405180910390fd5b81816040517f177e802f000000000000000000000000000000000000000000000000000000008152600401614191929190614e70565b60405180910390fd5b505050565b5f73ffffffffffffffffffffffffffffffffffffffff168273ffffffffffffffffffffffffffffffffffffffff160361420f575f6040517f64a0ae920000000000000000000000000000000000000000000000000000000081526004016142069190614543565b60405180910390fd5b5f61421b83835f6131c1565b90505f73ffffffffffffffffffffffffffffffffffffffff168173ffffffffffffffffffffffffffffffffffffffff161461428d575f6040517f73c6ac6e0000000000000000000000000000000000000000000000000000000081526004016142849190614543565b60405180910390fd5b505050565b5f5f73ffffffffffffffffffffffffffffffffffffffff168373ffffffffffffffffffffffffffffffffffffffff161415801561434957508273ffffffffffffffffffffffffffffffffffffffff168473ffffffffffffffffffffffffffffffffffffffff16148061430a57506143098484612ef6565b5b8061434857508273ffffffffffffffffffffffffffffffffffffffff166143308361316f565b73ffffffffffffffffffffffffffffffffffffffff16145b5b90509392505050565b5f604051905090565b5f5ffd5b5f5ffd5b5f7fffffffff0000000000000000000000000000000000000000000000000000000082169050919050565b61439781614363565b81146143a1575f5ffd5b50565b5f813590506143b28161438e565b92915050565b5f602082840312156143cd576143cc61435b565b5b5f6143da848285016143a4565b91505092915050565b5f8115159050919050565b6143f7816143e3565b82525050565b5f6020820190506144105f8301846143ee565b92915050565b5f81519050919050565b5f82825260208201905092915050565b8281835e5f83830152505050565b5f601f19601f8301169050919050565b5f61445882614416565b6144628185614420565b9350614472818560208601614430565b61447b8161443e565b840191505092915050565b5f6020820190508181035f83015261449e818461444e565b905092915050565b5f819050919050565b6144b8816144a6565b81146144c2575f5ffd5b50565b5f813590506144d3816144af565b92915050565b5f602082840312156144ee576144ed61435b565b5b5f6144fb848285016144c5565b91505092915050565b5f73ffffffffffffffffffffffffffffffffffffffff82169050919050565b5f61452d82614504565b9050919050565b61453d81614523565b82525050565b5f6020820190506145565f830184614534565b92915050565b61456581614523565b811461456f575f5ffd5b50565b5f813590506145808161455c565b92915050565b5f5f6040838503121561459c5761459b61435b565b5b5f6145a985828601614572565b92505060206145ba858286016144c5565b9150509250929050565b6145cd816144a6565b82525050565b5f6020820190506145e65f8301846145c4565b92915050565b5f5f5f606084860312156146035761460261435b565b5b5f61461086828701614572565b935050602061462186828701614572565b9250506040614632868287016144c5565b9150509250925092565b5f5f604083850312156146525761465161435b565b5b5f61465f858286016144c5565b9250506020614670858286016144c5565b9150509250929050565b5f5ffd5b5f5ffd5b7f4e487b71000000000000000000000000000000000000000000000000000000005f52604160045260245ffd5b6146b88261443e565b810181811067ffffffffffffffff821117156146d7576146d6614682565b5b80604052505050565b5f6146e9614352565b90506146f582826146af565b919050565b5f67ffffffffffffffff82111561471457614713614682565b5b61471d8261443e565b9050602081019050919050565b828183375f83830152505050565b5f61474a614745846146fa565b6146e0565b9050828152602081018484840111156147665761476561467e565b5b61477184828561472a565b509392505050565b5f82601f83011261478d5761478c61467a565b5b813561479d848260208601614738565b91505092915050565b6147af816143e3565b81146147b9575f5ffd5b50565b5f813590506147ca816147a6565b92915050565b5f5f5f5f5f5f5f5f610100898b0312156147ed576147ec61435b565b5b5f6147fa8b828c01614572565b985050602061480b8b828c016144c5565b975050604089013567ffffffffffffffff81111561482c5761482b61435f565b5b6148388b828c01614779565b965050606089013567ffffffffffffffff8111156148595761485861435f565b5b6148658b828c01614779565b955050608089013567ffffffffffffffff8111156148865761488561435f565b5b6148928b828c01614779565b94505060a06148a38b828c016144c5565b93505060c06148b48b828c016144c5565b92505060e06148c58b828c016147bc565b9150509295985092959890939650565b5f602082840312156148ea576148e961435b565b5b5f6148f784828501614572565b91505092915050565b5f5f5f606084860312156149175761491661435b565b5b5f614924868287016144c5565b935050602061493586828701614572565b9250506040614946868287016144c5565b9150509250925092565b5f5f604083850312156149665761496561435b565b5b5f61497385828601614572565b9250506020614984858286016147bc565b9150509250929050565b5f610100820190508181035f8301526149a7818b61444e565b905081810360208301526149bb818a61444e565b905081810360408301526149cf818961444e565b90506149de60608301886145c4565b6149eb60808301876145c4565b6149f860a08301866145c4565b614a0560c08301856145c4565b614a1260e08301846143ee565b9998505050505050505050565b5f67ffffffffffffffff821115614a3957614a38614682565b5b614a428261443e565b9050602081019050919050565b5f614a61614a5c84614a1f565b6146e0565b905082815260208101848484011115614a7d57614a7c61467e565b5b614a8884828561472a565b509392505050565b5f82601f830112614aa457614aa361467a565b5b8135614ab4848260208601614a4f565b91505092915050565b5f5f5f5f60808587031215614ad557614ad461435b565b5b5f614ae287828801614572565b9450506020614af387828801614572565b9350506040614b04878288016144c5565b925050606085013567ffffffffffffffff811115614b2557614b2461435f565b5b614b3187828801614a90565b91505092959194509250565b5f5f60408385031215614b5357614b5261435b565b5b5f614b60858286016144c5565b9250506020614b7185828601614572565b9150509250929050565b5f60c082019050614b8e5f830189614534565b614b9b60208301886145c4565b614ba860408301876143ee565b614bb56060830186614534565b614bc260808301856143ee565b614bcf60a08301846145c4565b979650505050505050565b5f5f60408385031215614bf057614bef61435b565b5b5f614bfd85828601614572565b9250506020614c0e85828601614572565b9150509250929050565b7f4e487b71000000000000000000000000000000000000000000000000000000005f52602260045260245ffd5b5f6002820490506001821680614c5c57607f821691505b602082108103614c6f57614c6e614c18565b5b50919050565b5f606082019050614c885f830186614534565b614c9560208301856145c4565b614ca26040830184614534565b949350505050565b7f546f6b656e20646f6573206e6f742065786973740000000000000000000000005f82015250565b5f614cde601483614420565b9150614ce982614caa565b602082019050919050565b5f6020820190508181035f830152614d0b81614cd2565b9050919050565b7f416c726561647920766f746564206f6e20746869732070726f706f73616c00005f82015250565b5f614d46601e83614420565b9150614d5182614d12565b602082019050919050565b5f6020820190508181035f830152614d7381614d3a565b9050919050565b7f4e6f206672616374696f6e7320746f20766f74652077697468000000000000005f82015250565b5f614dae601983614420565b9150614db982614d7a565b602082019050919050565b5f6020820190508181035f830152614ddb81614da2565b9050919050565b7f4672616374696f6e7320616c7265616479207573656420666f7220766f74696e5f8201527f6700000000000000000000000000000000000000000000000000000000000000602082015250565b5f614e3c602183614420565b9150614e4782614de2565b604082019050919050565b5f6020820190508181035f830152614e6981614e30565b9050919050565b5f604082019050614e835f830185614534565b614e9060208301846145c4565b9392505050565b5f819050815f5260205f209050919050565b5f6020601f8301049050919050565b5f82821b905092915050565b5f60088302614ef37fffffffffffffffffffffffffffffffffffffffffffffffffffffffffffffffff82614eb8565b614efd8683614eb8565b95508019841693508086168417925050509392505050565b5f819050919050565b5f614f38614f33614f2e846144a6565b614f15565b6144a6565b9050919050565b5f819050919050565b614f5183614f1e565b614f65614f5d82614f3f565b848454614ec4565b825550505050565b5f5f905090565b614f7c614f6d565b614f87818484614f48565b505050565b5b81811015614faa57614f9f5f82614f74565b600181019050614f8d565b5050565b601f821115614fef57614fc081614e97565b614fc984614ea9565b81016020851015614fd8578190505b614fec614fe485614ea9565b830182614f8c565b50505b505050565b5f82821c905092915050565b5f61500f5f1984600802614ff4565b1980831691505092915050565b5f6150278383615000565b9150826002028217905092915050565b61504082614416565b67ffffffffffffffff81111561505957615058614682565b5b6150638254614c45565b61506e828285614fae565b5f60209050601f83116001811461509f575f841561508d578287015190505b615097858261501c565b8655506150fe565b601f1984166150ad86614e97565b5f5b828110156150d4578489015182556001820191506020850194506020810190506150af565b868310156150f157848901516150ed601f891682615000565b8355505b6001600288020188555050505b505050505050565b7f4e487b71000000000000000000000000000000000000000000000000000000005f52603260045260245ffd5b7f416c72656164792064656c6567617465640000000000000000000000000000005f82015250565b5f615167601183614420565b915061517282615133565b602082019050919050565b5f6020820190508181035f8301526151948161515b565b9050919050565b7f44656c656761746520746f207a65726f206164647265737300000000000000005f82015250565b5f6151cf601883614420565b91506151da8261519b565b602082019050919050565b5f6020820190508181035f8301526151fc816151c3565b9050919050565b7f43616e6e6f742064656c656761746520746f2073656c660000000000000000005f82015250565b5f615237601783614420565b915061524282615203565b602082019050919050565b5f6020820190508181035f8301526152648161522b565b9050919050565b7f416d6f756e74206d75737420626520706f7369746976650000000000000000005f82015250565b5f61529f601783614420565b91506152aa8261526b565b602082019050919050565b5f6020820190508181035f8301526152cc81615293565b9050919050565b7f4e6f7420746865206672616374696f6e206f776e6572000000000000000000005f82015250565b5f615307601683614420565b9150615312826152d3565b602082019050919050565b5f6020820190508181035f830152615334816152fb565b9050919050565b7f496e73756666696369656e74206672616374696f6e2062616c616e63650000005f82015250565b5f61536f601d83614420565b915061537a8261533b565b602082019050919050565b5f6020820190508181035f83015261539c81615363565b9050919050565b7f43616e6e6f742064656c656761746520616674657220766f74696e67000000005f82015250565b5f6153d7601c83614420565b91506153e2826153a3565b602082019050919050565b5f6020820190508181035f830152615404816153cb565b9050919050565b7f4e487b71000000000000000000000000000000000000000000000000000000005f52601160045260245ffd5b5f615442826144a6565b915061544d836144a6565b92508282039050818111156154655761546461540b565b5b92915050565b5f615475826144a6565b9150615480836144a6565b92508282019050808211156154985761549761540b565b5b92915050565b7f4e6f206672616374696f6e73206f776e656400000000000000000000000000005f82015250565b5f6154d2601283614420565b91506154dd8261549e565b602082019050919050565b5f6020820190508181035f8301526154ff816154c6565b9050919050565b7f4e6f20726f79616c7469657320746f20636c61696d00000000000000000000005f82015250565b5f61553a601583614420565b915061554582615506565b602082019050919050565b5f6020820190508181035f8301526155678161552e565b9050919050565b5f615578826144a6565b9150615583836144a6565b9250828202615591816144a6565b915082820484148315176155a8576155a761540b565b5b5092915050565b7f4e487b71000000000000000000000000000000000000000000000000000000005f52601260045260245ffd5b5f6155e6826144a6565b91506155f1836144a6565b925082615601576156006155af565b5b828204905092915050565b7f526f79616c747920736861726520746f6f20736d616c6c0000000000000000005f82015250565b5f615640601783614420565b915061564b8261560c565b602082019050919050565b5f6020820190508181035f83015261566d81615634565b9050919050565b7f4e6f20726f79616c7469657320746f20646973747269627574650000000000005f82015250565b5f6156a8601a83614420565b91506156b382615674565b602082019050919050565b5f6020820190508181035f8301526156d58161569c565b9050919050565b7f416c7265616479207261676520717569740000000000000000000000000000005f82015250565b5f615710601183614420565b915061571b826156dc565b602082019050919050565b5f6020820190508181035f83015261573d81615704565b9050919050565b5f61574e826144a6565b91507fffffffffffffffffffffffffffffffffffffffffffffffffffffffffffffffff82036157805761577f61540b565b5b600182019050919050565b7f4e6f20656c696769626c6520746f6b656e7320666f72207261676520717569745f82015250565b5f6157bf602083614420565b91506157ca8261578b565b602082019050919050565b5f6020820190508181035f8301526157ec816157b3565b9050919050565b5f81519050919050565b5f82825260208201905092915050565b5f819050602082019050919050565b615825816144a6565b82525050565b5f615836838361581c565b60208301905092915050565b5f602082019050919050565b5f615858826157f3565b61586281856157fd565b935061586d8361580d565b805f5b8381101561589d578151615884888261582b565b975061588f83615842565b925050600181019050615870565b5085935050505092915050565b5f6020820190508181035f8301526158c2818461584e565b905092915050565b7f5472616e7366657220746f207a65726f206164647265737300000000000000005f82015250565b5f6158fe601883614420565b9150615909826158ca565b602082019050919050565b5f6020820190508181035f83015261592b816158f2565b9050919050565b7f43616e6e6f74207472616e7366657220616674657220766f74696e67000000005f82015250565b5f615966601c83614420565b915061597182615932565b602082019050919050565b5f6020820190508181035f8301526159938161595a565b9050919050565b7f43616e6e6f74207472616e736665722064656c656761746564206672616374695f8201527f6f6e730000000000000000000000000000000000000000000000000000000000602082015250565b5f6159f4602383614420565b91506159ff8261599a565b604082019050919050565b5f6020820190508181035f830152615a21816159e8565b9050919050565b5f81519050919050565b5f82825260208201905092915050565b5f615a4c82615a28565b615a568185615a32565b9350615a66818560208601614430565b615a6f8161443e565b840191505092915050565b5f608082019050615a8d5f830187614534565b615a9a6020830186614534565b615aa760408301856145c4565b8181036060830152615ab98184615a42565b905095945050505050565b5f81519050615ad28161438e565b92915050565b5f60208284031215615aed57615aec61435b565b5b5f615afa84828501615ac4565b91505092915050565b7f4e487b71000000000000000000000000000000000000000000000000000000005f52603160045260245ffdfea2646970667358221220ad29bc8b504674bbca63030bec5f71437a3f17a37e843fd2cf63130fe8ecd04164736f6c634300081c0033","linkReferences":{}},"methodIdentifiers":{"approve(address,uint256)":"095ea7b3","balanceOf(address)":"70a08231","castVote(uint256,uint256)":"2c0a3f89","claimRoyalties(uint256)":"86ad310f","delegate(address)":"5c19a95c","delegateFractions(uint256,address,uint256)":"61e58ed1","distributeRoyalties(uint256)":"b07cb365","getApproved(uint256)":"081812fc","getFraction(uint256,address)":"cd595ac2","getMetadata(uint256)":"a574cea4","getVotingPower(address)":"bb4d4436","hasDelegated(address)":"90ae9337","hasVotedOnProposal(address,uint256)":"2da46385","isApprovedForAll(address,address)":"e985e9c5","mint(address,uint256,string,string,string,uint256,uint256,bool)":"33eec834","name()":"06fdde03","owner()":"8da5cb5b","ownerOf(uint256)":"6352211e","rageQuit()":"b0ccbf8c","renounceOwnership()":"715018a6","safeTransferFrom(address,address,uint256)":"42842e0e","safeTransferFrom(address,address,uint256,bytes)":"b88d4fde","setApprovalForAll(address,bool)":"a22cb465","supportsInterface(bytes4)":"01ffc9a7","symbol()":"95d89b41","tokenByIndex(uint256)":"4f6ccce7","tokenOfOwnerByIndex(address,uint256)":"2f745c59","tokenURI(uint256)":"c87b56dd","totalSupply()":"18160ddd","transferFractions(uint256,address,uint256)":"dd3e1770","transferFrom(address,address,uint256)":"23b872dd","transferOwnership(address)":"f2fde38b"},"id":33}