{"abi":[{"type":"constructor","inputs":[{"name":"name","type":"string","internalType":"string"},{"name":"symbol","type":"string","internalType":"string"}],"stateMutability":"nonpayable"},{"type":"function","name":"approve","inputs":[{"name":"to","type":"address","internalType":"address"},{"name":"tokenId","type":"uint256","internalType":"uint256"}],"outputs":[],"stateMutability":"nonpayable"},{"type":"function","name":"balanceOf","inputs":[{"name":"owner","type":"address","internalType":"address"}],"outputs":[{"name":"","type":"uint256","internalType":"uint256"}],"stateMutability":"view"},{"type":"function","name":"castVote","inputs":[{"name":"proposalId","type":"uint256","internalType":"uint256"},{"name":"tokenId","type":"uint256","internalType":"uint256"}],"outputs":[],"stateMutability":"nonpayable"},{"type":"function","name":"claimRoyalties","inputs":[{"name":"tokenId","type":"uint256","internalType":"uint256"}],"outputs":[],"stateMutability":"nonpayable"},{"type":"function","name":"delegate","inputs":[{"name":"to","type":"address","internalType":"address"}],"outputs":[],"stateMutability":"nonpayable"},{"type":"function","name":"delegateFractions","inputs":[{"name":"tokenId","type":"uint256","internalType":"uint256"},{"name":"to","type":"address","internalType":"address"},{"name":"amount","type":"uint256","internalType":"uint256"}],"outputs":[],"stateMutability":"nonpayable"},{"type":"function","name":"distributeRoyalties","inputs":[{"name":"tokenId","type":"uint256","internalType":"uint256"}],"outputs":[],"stateMutability":"payable"},{"type":"function","name":"getApproved","inputs":[{"name":"tokenId","type":"uint256","internalType":"uint256"}],"outputs":[{"name":"","type":"address","internalType":"address"}],"stateMutability":"view"},{"type":"function","name":"getFraction","inputs":[{"name":"tokenId","type":"uint256","internalType":"uint256"},{"name":"account","type":"address","internalType":"address"}],"outputs":[{"name":"owner","type":"address","internalType":"address"},{"name":"amount","type":"uint256","internalType":"uint256"},{"name":"isDelegate","type":"bool","internalType":"bool"},{"name":"delegatedTo","type":"address","internalType":"address"},{"name":"hasVoted","type":"bool","internalType":"bool"},{"name":"lastVoteTimestamp","type":"uint256","internalType":"uint256"}],"stateMutability":"view"},{"type":"function","name":"getMetadata","inputs":[{"name":"tokenId","type":"uint256","internalType":"uint256"}],"outputs":[{"name":"name","type":"string","internalType":"string"},{"name":"description","type":"string","internalType":"string"},{"name":"uri","type":"string","internalType":"string"},{"name":"royaltyPercentage","type":"uint256","internalType":"uint256"},{"name":"totalFractions","type":"uint256","internalType":"uint256"},{"name":"availableFractions","type":"uint256","internalType":"uint256"},{"name":"accumulatedRoyalties","type":"uint256","internalType":"uint256"},{"name":"isEligibleForRageQuit","type":"bool","internalType":"bool"}],"stateMutability":"view"},{"type":"function","name":"getVotingPower","inputs":[{"name":"account","type":"address","internalType":"address"}],"outputs":[{"name":"","type":"uint256","internalType":"uint256"}],"stateMutability":"view"},{"type":"function","name":"hasDelegated","inputs":[{"name":"","type":"address","internalType":"address"}],"outputs":[{"name":"","type":"bool","internalType":"bool"}],"stateMutability":"view"},{"type":"function","name":"hasVotedOnProposal","inputs":[{"name":"account","type":"address","internalType":"address"},{"name":"proposalId","type":"uint256","internalType":"uint256"}],"outputs":[{"name":"","type":"bool","internalType":"bool"}],"stateMutability":"view"},{"type":"function","name":"isApprovedForAll","inputs":[{"name":"owner","type":"address","internalType":"address"},{"name":"operator","type":"address","internalType":"address"}],"outputs":[{"name":"","type":"bool","internalType":"bool"}],"stateMutability":"view"},{"type":"function","name":"mint","inputs":[{"name":"to","type":"address","internalType":"address"},{"name":"tokenId","type":"uint256","internalType":"uint256"},{"name":"name","type":"string","internalType":"string"},{"name":"description","type":"string","internalType":"string"},{"name":"uri","type":"string","internalType":"string"},{"name":"royaltyPercentage","type":"uint256","internalType":"uint256"},{"name":"totalFractions","type":"uint256","internalType":"uint256"},{"name":"eligibleForRageQuit","type":"bool","internalType":"bool"}],"outputs":[],"stateMutability":"nonpayable"},{"type":"function","name":"name","inputs":[],"outputs":[{"name":"","type":"string","internalType":"string"}],"stateMutability":"view"},{"type":"function","name":"owner","inputs":[],"outputs":[{"name":"","type":"address","internalType":"address"}],"stateMutability":"view"},{"type":"function","name":"ownerOf","inputs":[{"name":"tokenId","type":"uint256","internalType":"uint256"}],"outputs":[{"name":"","type":"address","internalType":"address"}],"stateMutability":"view"},{"type":"function","name":"rageQuit","inputs":[],"outputs":[],"stateMutability":"nonpayable"},{"type":"function","name":"renounceOwnership","inputs":[],"outputs":[],"stateMutability":"nonpayable"},{"type":"function","name":"safeTransferFrom","inputs":[{"name":"from","type":"address","internalType":"address"},{"name":"to","type":"address","internalType":"address"},{"name":"tokenId","type":"uint256","internalType":"uint256"}],"outputs":[],"stateMutability":"nonpayable"},{"type":"function","name":"safeTransferFrom","inputs":[{"name":"from","type":"address","internalType":"address"},{"name":"to","type":"address","internalType":"address"},{"name":"tokenId","type":"uint256","internalType":"uint256"},{"name":"data","type":"bytes","internalType":"bytes"}],"outputs":[],"stateMutability":"nonpayable"},{"type":"function","name":"setApprovalForAll","inputs":[{"name":"operator","type":"address","internalType":"address"},{"name":"approved","type":"bool","internalType":"bool"}],"outputs":[],"stateMutability":"nonpayable"},{"type":"function","name":"supportsInterface","inputs":[{"name":"interfaceId","type":"bytes4","internalType":"bytes4"}],"outputs":[{"name":"","type":"bool","internalType":"bool"}],"stateMutability":"view"},{"type":"function","name":"symbol","inputs":[],"outputs":[{"name":"","type":"string","internalType":"string"}],"stateMutability":"view"},{"type":"function","name":"tokenByIndex","inputs":[{"name":"index","type":"uint256","internalType":"uint256"}],"outputs":[{"name":"","type":"uint256","internalType":"uint256"}],"stateMutability":"view"},{"type":"function","name":"tokenOfOwnerByIndex","inputs":[{"name":"owner","type":"address","internalType":"address"},{"name":"index","type":"uint256","internalType":"uint256"}],"outputs":[{"name":"","type":"uint256","internalType":"uint256"}],"stateMutability":"view"},{"type":"function","name":"tokenURI","inputs":[{"name":"tokenId","type":"uint256","internalType":"uint256"}],"outputs":[{"name":"","type":"string","internalType":"string"}],"stateMutability":"view"},{"type":"function","name":"totalSupply","inputs":[],"outputs":[{"name":"","type":"uint256","internalType":"uint256"}],"stateMutability":"view"},{"type":"function","name":"transferFractions","inputs":[{"name":"tokenId","type":"uint256","internalType":"uint256"},{"name":"to","type":"address","internalType":"address"},{"name":"amount","type":"uint256","internalType":"uint256"}],"outputs":[],"stateMutability":"nonpayable"},{"type":"function","name":"transferFrom","inputs":[{"name":"from","type":"address","internalType":"address"},{"name":"to","type":"address","internalType":"address"},{"name":"tokenId","type":"uint256","internalType":"uint256"}],"outputs":[],"stateMutability":"nonpayable"},{"type":"function","name":"transferOwnership","inputs":[{"name":"newOwner","type":"address","internalType":"address"}],"outputs":[],"stateMutability":"nonpayable"},{"type":"event","name":"Approval","inputs":[{"name":"owner","type":"address","indexed":true,"internalType":"address"},{"name":"approved","type":"address","indexed":true,"internalType":"address"},{"name":"tokenId","type":"uint256","indexed":true,"internalType":"uint256"}],"anonymous":false},{"type":"event","name":"ApprovalForAll","inputs":[{"name":"owner","type":"address","indexed":true,"internalType":"address"},{"name":"operator","type":"address","indexed":true,"internalType":"address"},{"name":"approved","type":"bool","indexed":false,"internalType":"bool"}],"anonymous":false},{"type":"event","name":"FractionDelegated","inputs":[{"name":"tokenId","type":"uint256","indexed":true,"internalType":"uint256"},{"name":"from","type":"address","indexed":true,"internalType":"address"},{"name":"to","type":"address","indexed":true,"internalType":"address"},{"name":"amount","type":"uint256","indexed":false,"internalType":"uint256"}],"anonymous":false},{"type":"event","name":"FractionTransferred","inputs":[{"name":"tokenId","type":"uint256","indexed":true,"internalType":"uint256"},{"name":"from","type":"address","indexed":true,"internalType":"address"},{"name":"to","type":"address","indexed":true,"internalType":"address"},{"name":"amount","type":"uint256","indexed":false,"internalType":"uint256"}],"anonymous":false},{"type":"event","name":"OwnershipTransferred","inputs":[{"name":"previousOwner","type":"address","indexed":true,"internalType":"address"},{"name":"newOwner","type":"address","indexed":true,"internalType":"address"}],"anonymous":false},{"type":"event","name":"RageQuit","inputs":[{"name":"member","type":"address","indexed":true,"internalType":"address"},{"name":"tokenIds","type":"uint256[]","indexed":false,"internalType":"uint256[]"}],"anonymous":false},{"type":"event","name":"RoyaltyDistributed","inputs":[{"name":"tokenId","type":"uint256","indexed":true,"internalType":"uint256"},{"name":"amount","type":"uint256","indexed":false,"internalType":"uint256"}],"anonymous":false},{"type":"event","name":"Transfer","inputs":[{"name":"from","type":"address","indexed":true,"internalType":"address"},{"name":"to","type":"address","indexed":true,"internalType":"address"},{"name":"tokenId","type":"uint256","indexed":true,"internalType":"uint256"}],"anonymous":false},{"type":"event","name":"VoteCast","inputs":[{"name":"voter","type":"address","indexed":true,"internalType":"address"},{"name":"proposalId","type":"uint256","indexed":true,"internalType":"uint256"},{"name":"votingPower","type":"uint256","indexed":false,"internalType":"uint256"}],"anonymous":false},{"type":"error","name":"ERC721EnumerableForbiddenBatchMint","inputs":[]},{"type":"error","name":"ERC721IncorrectOwner","inputs":[{"name":"sender","type":"address","internalType":"address"},{"name":"tokenId","type":"uint256","internalType":"uint256"},{"name":"owner","type":"address","internalType":"address"}]},{"type":"error","name":"ERC721InsufficientApproval","inputs":[{"name":"operator","type":"address","internalType":"address"},{"name":"tokenId","type":"uint256","internalType":"uint256"}]},{"type":"error","name":"ERC721InvalidApprover","inputs":[{"name":"approver","type":"address","internalType":"address"}]},{"type":"error","name":"ERC721InvalidOperator","inputs":[{"name":"operator","type":"address","internalType":"address"}]},{"type":"error","name":"ERC721InvalidOwner","inputs":[{"name":"owner","type":"address","internalType":"address"}]},{"type":"error","name":"ERC721InvalidReceiver","inputs":[{"name":"receiver","type":"address","internalType":"address"}]},{"type":"error","name":"ERC721InvalidSender","inputs":[{"name":"sender","type":"address","internalType":"address"}]},{"type":"error","name":"ERC721NonexistentToken","inputs":[{"name":"tokenId","type":"uint256","internalType":"uint256"}]},{"type":"error","name":"ERC721OutOfBoundsIndex","inputs":[{"name":"owner","type":"address","internalType":"address"},{"name":"index","type":"uint256","internalType":"uint256"}]},{"type":"error","name":"OwnableInvalidOwner","inputs":[{"name":"owner","type":"address","internalType":"address"}]},{"type":"error","name":"OwnableUnauthorizedAccount","inputs":[{"name":"account","type":"address","internalType":"address"}]}],"bytecode":{"object":"0x608060405234801561000f575f5ffd5b50604051616162380380616162833981810160405281019061003191906102ec565b338282815f90816100429190610572565b5080600190816100529190610572565b5050505f73ffffffffffffffffffffffffffffffffffffffff168173ffffffffffffffffffffffffffffffffffffffff16036100c5575f6040517f1e4fbdf70000000000000000000000000000000000000000000000000000000081526004016100bc9190610680565b60405180910390fd5b6100d4816100dc60201b60201c565b505050610699565b5f600a5f9054906101000a900473ffffffffffffffffffffffffffffffffffffffff16905081600a5f6101000a81548173ffffffffffffffffffffffffffffffffffffffff021916908373ffffffffffffffffffffffffffffffffffffffff1602179055508173ffffffffffffffffffffffffffffffffffffffff168173ffffffffffffffffffffffffffffffffffffffff167f8be0079c531659141344cd1fd0a4f28419497f9722a3daafe3b4186f6b6457e060405160405180910390a35050565b5f604051905090565b5f5ffd5b5f5ffd5b5f5ffd5b5f5ffd5b5f601f19601f8301169050919050565b7f4e487b71000000000000000000000000000000000000000000000000000000005f52604160045260245ffd5b6101fe826101b8565b810181811067ffffffffffffffff8211171561021d5761021c6101c8565b5b80604052505050565b5f61022f61019f565b905061023b82826101f5565b919050565b5f67ffffffffffffffff82111561025a576102596101c8565b5b610263826101b8565b9050602081019050919050565b8281835e5f83830152505050565b5f61029061028b84610240565b610226565b9050828152602081018484840111156102ac576102ab6101b4565b5b6102b7848285610270565b509392505050565b5f82601f8301126102d3576102d26101b0565b5b81516102e384826020860161027e565b91505092915050565b5f5f60408385031215610302576103016101a8565b5b5f83015167ffffffffffffffff81111561031f5761031e6101ac565b5b61032b858286016102bf565b925050602083015167ffffffffffffffff81111561034c5761034b6101ac565b5b610358858286016102bf565b9150509250929050565b5f81519050919050565b7f4e487b71000000000000000000000000000000000000000000000000000000005f52602260045260245ffd5b5f60028204905060018216806103b057607f821691505b6020821081036103c3576103c261036c565b5b50919050565b5f819050815f5260205f209050919050565b5f6020601f8301049050919050565b5f82821b905092915050565b5f600883026104257fffffffffffffffffffffffffffffffffffffffffffffffffffffffffffffffff826103ea565b61042f86836103ea565b95508019841693508086168417925050509392505050565b5f819050919050565b5f819050919050565b5f61047361046e61046984610447565b610450565b610447565b9050919050565b5f819050919050565b61048c83610459565b6104a06104988261047a565b8484546103f6565b825550505050565b5f5f905090565b6104b76104a8565b6104c2818484610483565b505050565b5b818110156104e5576104da5f826104af565b6001810190506104c8565b5050565b601f82111561052a576104fb816103c9565b610504846103db565b81016020851015610513578190505b61052761051f856103db565b8301826104c7565b50505b505050565b5f82821c905092915050565b5f61054a5f198460080261052f565b1980831691505092915050565b5f610562838361053b565b9150826002028217905092915050565b61057b82610362565b67ffffffffffffffff811115610594576105936101c8565b5b61059e8254610399565b6105a98282856104e9565b5f60209050601f8311600181146105da575f84156105c8578287015190505b6105d28582610557565b865550610639565b601f1984166105e8866103c9565b5f5b8281101561060f578489015182556001820191506020850194506020810190506105ea565b8683101561062c5784890151610628601f89168261053b565b8355505b6001600288020188555050505b505050505050565b5f73ffffffffffffffffffffffffffffffffffffffff82169050919050565b5f61066a82610641565b9050919050565b61067a81610660565b82525050565b5f6020820190506106935f830184610671565b92915050565b615abc806106a65f395ff3fe6080604052600436106101e2575f3560e01c8063715018a611610101578063b0ccbf8c11610094578063cd595ac211610063578063cd595ac214610701578063dd3e177014610742578063e985e9c51461076a578063f2fde38b146107a6576101e2565b8063b0ccbf8c1461064b578063b88d4fde14610661578063bb4d443614610689578063c87b56dd146106c5576101e2565b806395d89b41116100d057806395d89b411461059a578063a22cb465146105c4578063a574cea4146105ec578063b07cb3651461062f576101e2565b8063715018a6146104f657806386ad310f1461050c5780638da5cb5b1461053457806390ae93371461055e576101e2565b80632f745c59116101795780635c19a95c116101485780635c19a95c1461042e57806361e58ed1146104565780636352211e1461047e57806370a08231146104ba576101e2565b80632f745c591461036657806333eec834146103a257806342842e0e146103ca5780634f6ccce7146103f2576101e2565b806318160ddd116101b557806318160ddd146102b057806323b872dd146102da5780632c0a3f89146103025780632da463851461032a576101e2565b806301ffc9a7146101e657806306fdde0314610222578063081812fc1461024c578063095ea7b314610288575b5f5ffd5b3480156101f1575f5ffd5b5061020c6004803603810190610207919061430e565b6107ce565b6040516102199190614353565b60405180910390f35b34801561022d575f5ffd5b50610236610847565b60405161024391906143dc565b60405180910390f35b348015610257575f5ffd5b50610272600480360381019061026d919061442f565b6108d6565b60405161027f9190614499565b60405180910390f35b348015610293575f5ffd5b506102ae60048036038101906102a991906144dc565b6108f1565b005b3480156102bb575f5ffd5b506102c4610907565b6040516102d19190614529565b60405180910390f35b3480156102e5575f5ffd5b5061030060048036038101906102fb9190614542565b610913565b005b34801561030d575f5ffd5b5061032860048036038101906103239190614592565b610a12565b005b348015610335575f5ffd5b50610350600480360381019061034b91906144dc565b610cbc565b60405161035d9190614353565b60405180910390f35b348015610371575f5ffd5b5061038c600480360381019061038791906144dc565b610d1e565b6040516103999190614529565b60405180910390f35b3480156103ad575f5ffd5b506103c860048036038101906103c39190614726565b610dc2565b005b3480156103d5575f5ffd5b506103f060048036038101906103eb9190614542565b6110b7565b005b3480156103fd575f5ffd5b506104186004803603810190610413919061442f565b6110d6565b6040516104259190614529565b60405180910390f35b348015610439575f5ffd5b50610454600480360381019061044f919061482b565b611148565b005b348015610461575f5ffd5b5061047c60048036038101906104779190614856565b61122a565b005b348015610489575f5ffd5b506104a4600480360381019061049f919061442f565b6119bc565b6040516104b19190614499565b60405180910390f35b3480156104c5575f5ffd5b506104e060048036038101906104db919061482b565b6119cd565b6040516104ed9190614529565b60405180910390f35b348015610501575f5ffd5b5061050a611a83565b005b348015610517575f5ffd5b50610532600480360381019061052d919061442f565b611a96565b005b34801561053f575f5ffd5b50610548611d27565b6040516105559190614499565b60405180910390f35b348015610569575f5ffd5b50610584600480360381019061057f919061482b565b611d4f565b6040516105919190614353565b60405180910390f35b3480156105a5575f5ffd5b506105ae611d6c565b6040516105bb91906143dc565b60405180910390f35b3480156105cf575f5ffd5b506105ea60048036038101906105e591906148a6565b611dfc565b005b3480156105f7575f5ffd5b50610612600480360381019061060d919061442f565b611e12565b6040516106269897969594939291906148e4565b60405180910390f35b6106496004803603810190610644919061442f565b612062565b005b348015610656575f5ffd5b5061065f612154565b005b34801561066c575f5ffd5b5061068760048036038101906106829190614a13565b6124e7565b005b348015610694575f5ffd5b506106af60048036038101906106aa919061482b565b61250c565b6040516106bc9190614529565b60405180910390f35b3480156106d0575f5ffd5b506106eb60048036038101906106e6919061442f565b612552565b6040516106f891906143dc565b60405180910390f35b34801561070c575f5ffd5b5061072760048036038101906107229190614a93565b61263e565b60405161073996959493929190614ad1565b60405180910390f35b34801561074d575f5ffd5b5061076860048036038101906107639190614856565b612767565b005b348015610775575f5ffd5b50610790600480360381019061078b9190614b30565b612e4c565b60405161079d9190614353565b60405180910390f35b3480156107b1575f5ffd5b506107cc60048036038101906107c7919061482b565b612eda565b005b5f7f780e9d63000000000000000000000000000000000000000000000000000000007bffffffffffffffffffffffffffffffffffffffffffffffffffffffff1916827bffffffffffffffffffffffffffffffffffffffffffffffffffffffff19161480610840575061083f82612f5e565b5b9050919050565b60605f805461085590614b9b565b80601f016020809104026020016040519081016040528092919081815260200182805461088190614b9b565b80156108cc5780601f106108a3576101008083540402835291602001916108cc565b820191905f5260205f20905b8154815290600101906020018083116108af57829003601f168201915b5050505050905090565b5f6108e08261303f565b506108ea826130c5565b9050919050565b61090382826108fe6130fe565b613105565b5050565b5f600880549050905090565b5f73ffffffffffffffffffffffffffffffffffffffff168273ffffffffffffffffffffffffffffffffffffffff1603610983575f6040517f64a0ae9200000000000000000000000000000000000000000000000000000000815260040161097a9190614499565b60405180910390fd5b5f61099683836109916130fe565b613117565b90508373ffffffffffffffffffffffffffffffffffffffff168173ffffffffffffffffffffffffffffffffffffffff1614610a0c578382826040517f64283d7b000000000000000000000000000000000000000000000000000000008152600401610a0393929190614bcb565b60405180910390fd5b50505050565b610a1b81613231565b610a5a576040517f08c379a0000000000000000000000000000000000000000000000000000000008152600401610a5190614c4a565b60405180910390fd5b60105f3373ffffffffffffffffffffffffffffffffffffffff1673ffffffffffffffffffffffffffffffffffffffff1681526020019081526020015f205f8381526020019081526020015f205f9054906101000a900460ff1615610af3576040517f08c379a0000000000000000000000000000000000000000000000000000000008152600401610aea90614cb2565b60405180910390fd5b5f600b5f8381526020019081526020015f205f3373ffffffffffffffffffffffffffffffffffffffff1673ffffffffffffffffffffffffffffffffffffffff1681526020019081526020015f2090505f816001015411610b88576040517f08c379a0000000000000000000000000000000000000000000000000000000008152600401610b7f90614d1a565b60405180910390fd5b8060020160159054906101000a900460ff1615610bda576040517f08c379a0000000000000000000000000000000000000000000000000000000008152600401610bd190614da8565b60405180910390fd5b60018160020160156101000a81548160ff021916908315150217905550428160030181905550600160105f3373ffffffffffffffffffffffffffffffffffffffff1673ffffffffffffffffffffffffffffffffffffffff1681526020019081526020015f205f8581526020019081526020015f205f6101000a81548160ff021916908315150217905550823373ffffffffffffffffffffffffffffffffffffffff167fb4cfecf70861b7b150d8337780d34fb4cbc2114b5fb1fe51a5c5fca1849f72748360010154604051610caf9190614529565b60405180910390a3505050565b5f60105f8473ffffffffffffffffffffffffffffffffffffffff1673ffffffffffffffffffffffffffffffffffffffff1681526020019081526020015f205f8381526020019081526020015f205f9054906101000a900460ff16905092915050565b5f610d28836119cd565b8210610d6d5782826040517fa57d13dc000000000000000000000000000000000000000000000000000000008152600401610d64929190614dc6565b60405180910390fd5b60065f8473ffffffffffffffffffffffffffffffffffffffff1673ffffffffffffffffffffffffffffffffffffffff1681526020019081526020015f205f8381526020019081526020015f2054905092915050565b610dca613271565b610dd488886132f8565b6040518061010001604052808781526020018681526020018581526020018481526020018381526020018381526020015f8152602001821515815250600d5f8981526020019081526020015f205f820151815f019081610e349190614f8d565b506020820151816001019081610e4a9190614f8d565b506040820151816002019081610e609190614f8d565b50606082015181600301556080820151816004015560a0820151816005015560c0820151816006015560e0820151816007015f6101000a81548160ff0219169083151502179055509050506040518060c001604052808973ffffffffffffffffffffffffffffffffffffffff1681526020018381526020015f151581526020015f73ffffffffffffffffffffffffffffffffffffffff1681526020015f151581526020015f815250600b5f8981526020019081526020015f205f8a73ffffffffffffffffffffffffffffffffffffffff1673ffffffffffffffffffffffffffffffffffffffff1681526020019081526020015f205f820151815f015f6101000a81548173ffffffffffffffffffffffffffffffffffffffff021916908373ffffffffffffffffffffffffffffffffffffffff160217905550602082015181600101556040820151816002015f6101000a81548160ff02191690831515021790555060608201518160020160016101000a81548173ffffffffffffffffffffffffffffffffffffffff021916908373ffffffffffffffffffffffffffffffffffffffff16021790555060808201518160020160156101000a81548160ff02191690831515021790555060a08201518160030155905050600c5f8881526020019081526020015f2088908060018154018082558091505060019003905f5260205f20015f9091909190916101000a81548173ffffffffffffffffffffffffffffffffffffffff021916908373ffffffffffffffffffffffffffffffffffffffff1602179055506110ad88613315565b5050505050505050565b6110d183838360405180602001604052805f8152506124e7565b505050565b5f6110df610907565b8210611124575f826040517fa57d13dc00000000000000000000000000000000000000000000000000000000815260040161111b929190614dc6565b60405180910390fd5b600882815481106111385761113761505c565b5b905f5260205f2001549050919050565b60115f3373ffffffffffffffffffffffffffffffffffffffff1673ffffffffffffffffffffffffffffffffffffffff1681526020019081526020015f205f9054906101000a900460ff16156111d2576040517f08c379a00000000000000000000000000000000000000000000000000000000081526004016111c9906150d3565b60405180910390fd5b600160115f3373ffffffffffffffffffffffffffffffffffffffff1673ffffffffffffffffffffffffffffffffffffffff1681526020019081526020015f205f6101000a81548160ff02191690831515021790555050565b61123383613231565b611272576040517f08c379a000000000000000000000000000000000000000000000000000000000815260040161126990614c4a565b60405180910390fd5b5f73ffffffffffffffffffffffffffffffffffffffff168273ffffffffffffffffffffffffffffffffffffffff16036112e0576040517f08c379a00000000000000000000000000000000000000000000000000000000081526004016112d79061513b565b60405180910390fd5b3373ffffffffffffffffffffffffffffffffffffffff168273ffffffffffffffffffffffffffffffffffffffff160361134e576040517f08c379a0000000000000000000000000000000000000000000000000000000008152600401611345906151a3565b60405180910390fd5b5f8111611390576040517f08c379a00000000000000000000000000000000000000000000000000000000081526004016113879061520b565b60405180910390fd5b5f600b5f8581526020019081526020015f205f3373ffffffffffffffffffffffffffffffffffffffff1673ffffffffffffffffffffffffffffffffffffffff1681526020019081526020015f2090503373ffffffffffffffffffffffffffffffffffffffff16815f015f9054906101000a900473ffffffffffffffffffffffffffffffffffffffff1673ffffffffffffffffffffffffffffffffffffffff161461146f576040517f08c379a000000000000000000000000000000000000000000000000000000000815260040161146690615273565b60405180910390fd5b81816001015410156114b6576040517f08c379a00000000000000000000000000000000000000000000000000000000081526004016114ad906152db565b60405180910390fd5b8060020160159054906101000a900460ff1615611508576040517f08c379a00000000000000000000000000000000000000000000000000000000081526004016114ff90615343565b60405180910390fd5b5f73ffffffffffffffffffffffffffffffffffffffff168160020160019054906101000a900473ffffffffffffffffffffffffffffffffffffffff1673ffffffffffffffffffffffffffffffffffffffff161461159a576040517f08c379a0000000000000000000000000000000000000000000000000000000008152600401611591906150d3565b60405180910390fd5b8181600101546115aa919061538e565b8160010181905550828160020160016101000a81548173ffffffffffffffffffffffffffffffffffffffff021916908373ffffffffffffffffffffffffffffffffffffffff1602179055505f73ffffffffffffffffffffffffffffffffffffffff16600b5f8681526020019081526020015f205f8573ffffffffffffffffffffffffffffffffffffffff1673ffffffffffffffffffffffffffffffffffffffff1681526020019081526020015f205f015f9054906101000a900473ffffffffffffffffffffffffffffffffffffffff1673ffffffffffffffffffffffffffffffffffffffff1603611890576040518060c001604052808473ffffffffffffffffffffffffffffffffffffffff1681526020015f81526020016001151581526020015f73ffffffffffffffffffffffffffffffffffffffff1681526020015f151581526020015f815250600b5f8681526020019081526020015f205f8573ffffffffffffffffffffffffffffffffffffffff1673ffffffffffffffffffffffffffffffffffffffff1681526020019081526020015f205f820151815f015f6101000a81548173ffffffffffffffffffffffffffffffffffffffff021916908373ffffffffffffffffffffffffffffffffffffffff160217905550602082015181600101556040820151816002015f6101000a81548160ff02191690831515021790555060608201518160020160016101000a81548173ffffffffffffffffffffffffffffffffffffffff021916908373ffffffffffffffffffffffffffffffffffffffff16021790555060808201518160020160156101000a81548160ff02191690831515021790555060a08201518160030155905050600c5f8581526020019081526020015f2083908060018154018082558091505060019003905f5260205f20015f9091909190916101000a81548173ffffffffffffffffffffffffffffffffffffffff021916908373ffffffffffffffffffffffffffffffffffffffff1602179055505b81600b5f8681526020019081526020015f205f8573ffffffffffffffffffffffffffffffffffffffff1673ffffffffffffffffffffffffffffffffffffffff1681526020019081526020015f20600101546118eb91906153c1565b600b5f8681526020019081526020015f205f8573ffffffffffffffffffffffffffffffffffffffff1673ffffffffffffffffffffffffffffffffffffffff1681526020019081526020015f206001018190555061194733613315565b61195083613315565b8273ffffffffffffffffffffffffffffffffffffffff163373ffffffffffffffffffffffffffffffffffffffff16857fa0694176d1dadf0186f8310fc7b4b3dda1ab798e262c8b9993a41962ac2b379a856040516119ae9190614529565b60405180910390a450505050565b5f6119c68261303f565b9050919050565b5f5f73ffffffffffffffffffffffffffffffffffffffff168273ffffffffffffffffffffffffffffffffffffffff1603611a3e575f6040517f89c62b64000000000000000000000000000000000000000000000000000000008152600401611a359190614499565b60405180910390fd5b60035f8373ffffffffffffffffffffffffffffffffffffffff1673ffffffffffffffffffffffffffffffffffffffff1681526020019081526020015f20549050919050565b611a8b613271565b611a945f613418565b565b611a9f81613231565b611ade576040517f08c379a0000000000000000000000000000000000000000000000000000000008152600401611ad590614c4a565b60405180910390fd5b5f600b5f8381526020019081526020015f205f3373ffffffffffffffffffffffffffffffffffffffff1673ffffffffffffffffffffffffffffffffffffffff1681526020019081526020015f2090503373ffffffffffffffffffffffffffffffffffffffff16815f015f9054906101000a900473ffffffffffffffffffffffffffffffffffffffff1673ffffffffffffffffffffffffffffffffffffffff1614611bbd576040517f08c379a0000000000000000000000000000000000000000000000000000000008152600401611bb490615273565b60405180910390fd5b5f816001015411611c03576040517f08c379a0000000000000000000000000000000000000000000000000000000008152600401611bfa9061543e565b60405180910390fd5b5f600d5f8481526020019081526020015f2090505f816006015411611c5d576040517f08c379a0000000000000000000000000000000000000000000000000000000008152600401611c54906154a6565b60405180910390fd5b5f816004015483600101548360060154611c7791906154c4565b611c819190615532565b90505f8111611cc5576040517f08c379a0000000000000000000000000000000000000000000000000000000008152600401611cbc906155ac565b60405180910390fd5b808260060154611cd5919061538e565b82600601819055503373ffffffffffffffffffffffffffffffffffffffff166108fc8290811502906040515f60405180830381858888f19350505050158015611d20573d5f5f3e3d5ffd5b5050505050565b5f600a5f9054906101000a900473ffffffffffffffffffffffffffffffffffffffff16905090565b6011602052805f5260405f205f915054906101000a900460ff1681565b606060018054611d7b90614b9b565b80601f0160208091040260200160405190810160405280929190818152602001828054611da790614b9b565b8015611df25780601f10611dc957610100808354040283529160200191611df2565b820191905f5260205f20905b815481529060010190602001808311611dd557829003601f168201915b5050505050905090565b611e0e611e076130fe565b83836134db565b5050565b60608060605f5f5f5f5f611e2589613231565b611e64576040517f08c379a0000000000000000000000000000000000000000000000000000000008152600401611e5b90614c4a565b60405180910390fd5b5f600d5f8b81526020019081526020015f209050805f0181600101826002018360030154846004015485600501548660060154876007015f9054906101000a900460ff16878054611eb490614b9b565b80601f0160208091040260200160405190810160405280929190818152602001828054611ee090614b9b565b8015611f2b5780601f10611f0257610100808354040283529160200191611f2b565b820191905f5260205f20905b815481529060010190602001808311611f0e57829003601f168201915b50505050509750868054611f3e90614b9b565b80601f0160208091040260200160405190810160405280929190818152602001828054611f6a90614b9b565b8015611fb55780601f10611f8c57610100808354040283529160200191611fb5565b820191905f5260205f20905b815481529060010190602001808311611f9857829003601f168201915b50505050509650858054611fc890614b9b565b80601f0160208091040260200160405190810160405280929190818152602001828054611ff490614b9b565b801561203f5780601f106120165761010080835404028352916020019161203f565b820191905f5260205f20905b81548152906001019060200180831161202257829003601f168201915b505050505095509850985098509850985098509850985050919395975091939597565b61206b81613231565b6120aa576040517f08c379a00000000000000000000000000000000000000000000000000000000081526004016120a190614c4a565b60405180910390fd5b5f34116120ec576040517f08c379a00000000000000000000000000000000000000000000000000000000081526004016120e390615614565b60405180910390fd5b5f600d5f8381526020019081526020015f20905034816006015461211091906153c1565b8160060181905550817f8ed3543c92c7106a56f0a6cdaa716fef62211f99d6630ecd4dc1231d9edae811346040516121489190614529565b60405180910390a25050565b600e5f3373ffffffffffffffffffffffffffffffffffffffff1673ffffffffffffffffffffffffffffffffffffffff1681526020019081526020015f205f9054906101000a900460ff16156121de576040517f08c379a00000000000000000000000000000000000000000000000000000000081526004016121d59061567c565b60405180910390fd5b5f6121e7610907565b67ffffffffffffffff811115612200576121ff6145d8565b5b60405190808252806020026020018201604052801561222e5781602001602082028036833780820191505090505b5090505f5f90505f5f90505b612242610907565b8110156123b6575f612253826110d6565b9050600d5f8281526020019081526020015f206007015f9054906101000a900460ff16801561231a57503373ffffffffffffffffffffffffffffffffffffffff16600b5f8381526020019081526020015f205f3373ffffffffffffffffffffffffffffffffffffffff1673ffffffffffffffffffffffffffffffffffffffff1681526020019081526020015f205f015f9054906101000a900473ffffffffffffffffffffffffffffffffffffffff1673ffffffffffffffffffffffffffffffffffffffff16145b801561237457505f600b5f8381526020019081526020015f205f3373ffffffffffffffffffffffffffffffffffffffff1673ffffffffffffffffffffffffffffffffffffffff1681526020019081526020015f2060010154115b156123a8578084848151811061238d5761238c61505c565b5b60200260200101818152505082806123a49061569a565b9350505b50808060010191505061223a565b508082525f81116123fc576040517f08c379a00000000000000000000000000000000000000000000000000000000081526004016123f39061572b565b60405180910390fd5b5f5f90505b8181101561243f575f83828151811061241d5761241c61505c565b5b602002602001015190506124313382613644565b508080600101915050612401565b506001600e5f3373ffffffffffffffffffffffffffffffffffffffff1673ffffffffffffffffffffffffffffffffffffffff1681526020019081526020015f205f6101000a81548160ff0219169083151502179055503373ffffffffffffffffffffffffffffffffffffffff167f85711a53a13cae7bd547915c21bc660d3c79772e0ac59cf58b820e42423d05e0836040516124db9190615800565b60405180910390a25050565b6124f2848484610913565b6125066124fd6130fe565b85858585613798565b50505050565b5f600f5f8373ffffffffffffffffffffffffffffffffffffffff1673ffffffffffffffffffffffffffffffffffffffff1681526020019081526020015f20549050919050565b606061255d82613231565b61259c576040517f08c379a000000000000000000000000000000000000000000000000000000000815260040161259390614c4a565b60405180910390fd5b600d5f8381526020019081526020015f2060020180546125bb90614b9b565b80601f01602080910402602001604051908101604052809291908181526020018280546125e790614b9b565b80156126325780601f1061260957610100808354040283529160200191612632565b820191905f5260205f20905b81548152906001019060200180831161261557829003601f168201915b50505050509050919050565b5f5f5f5f5f5f61264d88613231565b61268c576040517f08c379a000000000000000000000000000000000000000000000000000000000815260040161268390614c4a565b60405180910390fd5b5f600b5f8a81526020019081526020015f205f8973ffffffffffffffffffffffffffffffffffffffff1673ffffffffffffffffffffffffffffffffffffffff1681526020019081526020015f209050805f015f9054906101000a900473ffffffffffffffffffffffffffffffffffffffff168160010154826002015f9054906101000a900460ff168360020160019054906101000a900473ffffffffffffffffffffffffffffffffffffffff168460020160159054906101000a900460ff168560030154965096509650965096509650509295509295509295565b61277083613231565b6127af576040517f08c379a00000000000000000000000000000000000000000000000000000000081526004016127a690614c4a565b60405180910390fd5b5f73ffffffffffffffffffffffffffffffffffffffff168273ffffffffffffffffffffffffffffffffffffffff160361281d576040517f08c379a00000000000000000000000000000000000000000000000000000000081526004016128149061586a565b60405180910390fd5b5f811161285f576040517f08c379a00000000000000000000000000000000000000000000000000000000081526004016128569061520b565b60405180910390fd5b5f600b5f8581526020019081526020015f205f3373ffffffffffffffffffffffffffffffffffffffff1673ffffffffffffffffffffffffffffffffffffffff1681526020019081526020015f2090503373ffffffffffffffffffffffffffffffffffffffff16815f015f9054906101000a900473ffffffffffffffffffffffffffffffffffffffff1673ffffffffffffffffffffffffffffffffffffffff161461293e576040517f08c379a000000000000000000000000000000000000000000000000000000000815260040161293590615273565b60405180910390fd5b8181600101541015612985576040517f08c379a000000000000000000000000000000000000000000000000000000000815260040161297c906152db565b60405180910390fd5b8060020160159054906101000a900460ff16156129d7576040517f08c379a00000000000000000000000000000000000000000000000000000000081526004016129ce906158d2565b60405180910390fd5b5f73ffffffffffffffffffffffffffffffffffffffff168160020160019054906101000a900473ffffffffffffffffffffffffffffffffffffffff1673ffffffffffffffffffffffffffffffffffffffff1614612a69576040517f08c379a0000000000000000000000000000000000000000000000000000000008152600401612a6090615960565b60405180910390fd5b818160010154612a79919061538e565b81600101819055505f73ffffffffffffffffffffffffffffffffffffffff16600b5f8681526020019081526020015f205f8573ffffffffffffffffffffffffffffffffffffffff1673ffffffffffffffffffffffffffffffffffffffff1681526020019081526020015f205f015f9054906101000a900473ffffffffffffffffffffffffffffffffffffffff1673ffffffffffffffffffffffffffffffffffffffff1603612d1f576040518060c001604052808473ffffffffffffffffffffffffffffffffffffffff1681526020018381526020015f151581526020015f73ffffffffffffffffffffffffffffffffffffffff1681526020015f151581526020015f815250600b5f8681526020019081526020015f205f8573ffffffffffffffffffffffffffffffffffffffff1673ffffffffffffffffffffffffffffffffffffffff1681526020019081526020015f205f820151815f015f6101000a81548173ffffffffffffffffffffffffffffffffffffffff021916908373ffffffffffffffffffffffffffffffffffffffff160217905550602082015181600101556040820151816002015f6101000a81548160ff02191690831515021790555060608201518160020160016101000a81548173ffffffffffffffffffffffffffffffffffffffff021916908373ffffffffffffffffffffffffffffffffffffffff16021790555060808201518160020160156101000a81548160ff02191690831515021790555060a08201518160030155905050600c5f8581526020019081526020015f2083908060018154018082558091505060019003905f5260205f20015f9091909190916101000a81548173ffffffffffffffffffffffffffffffffffffffff021916908373ffffffffffffffffffffffffffffffffffffffff160217905550612dce565b81600b5f8681526020019081526020015f205f8573ffffffffffffffffffffffffffffffffffffffff1673ffffffffffffffffffffffffffffffffffffffff1681526020019081526020015f2060010154612d7a91906153c1565b600b5f8681526020019081526020015f205f8573ffffffffffffffffffffffffffffffffffffffff1673ffffffffffffffffffffffffffffffffffffffff1681526020019081526020015f20600101819055505b612dd733613315565b612de083613315565b8273ffffffffffffffffffffffffffffffffffffffff163373ffffffffffffffffffffffffffffffffffffffff16857f7ff67dbbdeb398bca52908d00dd27b952f03cbe7657eb5dac8138dacf2b52b3f85604051612e3e9190614529565b60405180910390a450505050565b5f60055f8473ffffffffffffffffffffffffffffffffffffffff1673ffffffffffffffffffffffffffffffffffffffff1681526020019081526020015f205f8373ffffffffffffffffffffffffffffffffffffffff1673ffffffffffffffffffffffffffffffffffffffff1681526020019081526020015f205f9054906101000a900460ff16905092915050565b612ee2613271565b5f73ffffffffffffffffffffffffffffffffffffffff168173ffffffffffffffffffffffffffffffffffffffff1603612f52575f6040517f1e4fbdf7000000000000000000000000000000000000000000000000000000008152600401612f499190614499565b60405180910390fd5b612f5b81613418565b50565b5f7f80ac58cd000000000000000000000000000000000000000000000000000000007bffffffffffffffffffffffffffffffffffffffffffffffffffffffff1916827bffffffffffffffffffffffffffffffffffffffffffffffffffffffff1916148061302857507f5b5e139f000000000000000000000000000000000000000000000000000000007bffffffffffffffffffffffffffffffffffffffffffffffffffffffff1916827bffffffffffffffffffffffffffffffffffffffffffffffffffffffff1916145b80613038575061303782613944565b5b9050919050565b5f5f61304a836139ad565b90505f73ffffffffffffffffffffffffffffffffffffffff168173ffffffffffffffffffffffffffffffffffffffff16036130bc57826040517f7e2732890000000000000000000000000000000000000000000000000000000081526004016130b39190614529565b60405180910390fd5b80915050919050565b5f60045f8381526020019081526020015f205f9054906101000a900473ffffffffffffffffffffffffffffffffffffffff169050919050565b5f33905090565b61311283838360016139e6565b505050565b5f5f613124858585613ba5565b90505f73ffffffffffffffffffffffffffffffffffffffff168173ffffffffffffffffffffffffffffffffffffffff16036131675761316284613db0565b6131a6565b8473ffffffffffffffffffffffffffffffffffffffff168173ffffffffffffffffffffffffffffffffffffffff16146131a5576131a48185613df4565b5b5b5f73ffffffffffffffffffffffffffffffffffffffff168573ffffffffffffffffffffffffffffffffffffffff16036131e7576131e284613ecb565b613226565b8473ffffffffffffffffffffffffffffffffffffffff168173ffffffffffffffffffffffffffffffffffffffff1614613225576132248585613f8b565b5b5b809150509392505050565b5f5f73ffffffffffffffffffffffffffffffffffffffff16613252836119bc565b73ffffffffffffffffffffffffffffffffffffffff1614159050919050565b6132796130fe565b73ffffffffffffffffffffffffffffffffffffffff16613297611d27565b73ffffffffffffffffffffffffffffffffffffffff16146132f6576132ba6130fe565b6040517f118cdaa70000000000000000000000000000000000000000000000000000000081526004016132ed9190614499565b60405180910390fd5b565b613311828260405180602001604052805f81525061400f565b5050565b5f5f90505f5f90505b613326610907565b8110156133d1575f613337826110d6565b90505f600b5f8381526020019081526020015f205f8673ffffffffffffffffffffffffffffffffffffffff1673ffffffffffffffffffffffffffffffffffffffff1681526020019081526020015f2090505f81600101541180156133aa57508060020160159054906101000a900460ff16155b156133c2578060010154846133bf91906153c1565b93505b5050808060010191505061331e565b5080600f5f8473ffffffffffffffffffffffffffffffffffffffff1673ffffffffffffffffffffffffffffffffffffffff1681526020019081526020015f20819055505050565b5f600a5f9054906101000a900473ffffffffffffffffffffffffffffffffffffffff16905081600a5f6101000a81548173ffffffffffffffffffffffffffffffffffffffff021916908373ffffffffffffffffffffffffffffffffffffffff1602179055508173ffffffffffffffffffffffffffffffffffffffff168173ffffffffffffffffffffffffffffffffffffffff167f8be0079c531659141344cd1fd0a4f28419497f9722a3daafe3b4186f6b6457e060405160405180910390a35050565b5f73ffffffffffffffffffffffffffffffffffffffff168273ffffffffffffffffffffffffffffffffffffffff160361354b57816040517f5b08ba180000000000000000000000000000000000000000000000000000000081526004016135429190614499565b60405180910390fd5b8060055f8573ffffffffffffffffffffffffffffffffffffffff1673ffffffffffffffffffffffffffffffffffffffff1681526020019081526020015f205f8473ffffffffffffffffffffffffffffffffffffffff1673ffffffffffffffffffffffffffffffffffffffff1681526020019081526020015f205f6101000a81548160ff0219169083151502179055508173ffffffffffffffffffffffffffffffffffffffff168373ffffffffffffffffffffffffffffffffffffffff167f17307eab39ab6107e8899845ad3d59bd9653f200f220920489ca2b5937696c31836040516136379190614353565b60405180910390a3505050565b5f600b5f8381526020019081526020015f205f8473ffffffffffffffffffffffffffffffffffffffff1673ffffffffffffffffffffffffffffffffffffffff1681526020019081526020015f2090508273ffffffffffffffffffffffffffffffffffffffff16815f015f9054906101000a900473ffffffffffffffffffffffffffffffffffffffff1673ffffffffffffffffffffffffffffffffffffffff1614613723576040517f08c379a000000000000000000000000000000000000000000000000000000000815260040161371a90615273565b60405180910390fd5b5f816001015490505f826001018190555060018260020160156101000a81548160ff02191690831515021790555080600d5f8581526020019081526020015f2060050154613771919061538e565b600d5f8581526020019081526020015f206005018190555061379284613315565b50505050565b5f8373ffffffffffffffffffffffffffffffffffffffff163b111561393d578273ffffffffffffffffffffffffffffffffffffffff1663150b7a02868685856040518563ffffffff1660e01b81526004016137f694939291906159d0565b6020604051808303815f875af192505050801561383157506040513d601f19601f8201168201806040525081019061382e9190615a2e565b60015b6138b2573d805f811461385f576040519150601f19603f3d011682016040523d82523d5f602084013e613864565b606091505b505f8151036138aa57836040517f64a0ae920000000000000000000000000000000000000000000000000000000081526004016138a19190614499565b60405180910390fd5b805181602001fd5b63150b7a0260e01b7bffffffffffffffffffffffffffffffffffffffffffffffffffffffff1916817bffffffffffffffffffffffffffffffffffffffffffffffffffffffff19161461393b57836040517f64a0ae920000000000000000000000000000000000000000000000000000000081526004016139329190614499565b60405180910390fd5b505b5050505050565b5f7f01ffc9a7000000000000000000000000000000000000000000000000000000007bffffffffffffffffffffffffffffffffffffffffffffffffffffffff1916827bffffffffffffffffffffffffffffffffffffffffffffffffffffffff1916149050919050565b5f60025f8381526020019081526020015f205f9054906101000a900473ffffffffffffffffffffffffffffffffffffffff169050919050565b8080613a1e57505f73ffffffffffffffffffffffffffffffffffffffff168273ffffffffffffffffffffffffffffffffffffffff1614155b15613b50575f613a2d8461303f565b90505f73ffffffffffffffffffffffffffffffffffffffff168373ffffffffffffffffffffffffffffffffffffffff1614158015613a9757508273ffffffffffffffffffffffffffffffffffffffff168173ffffffffffffffffffffffffffffffffffffffff1614155b8015613aaa5750613aa88184612e4c565b155b15613aec57826040517fa9fbf51f000000000000000000000000000000000000000000000000000000008152600401613ae39190614499565b60405180910390fd5b8115613b4e57838573ffffffffffffffffffffffffffffffffffffffff168273ffffffffffffffffffffffffffffffffffffffff167f8c5be1e5ebec7d5bd14f71427d1e84f3dd0314c0f7b2291e5b200ac8c7c3b92560405160405180910390a45b505b8360045f8581526020019081526020015f205f6101000a81548173ffffffffffffffffffffffffffffffffffffffff021916908373ffffffffffffffffffffffffffffffffffffffff16021790555050505050565b5f5f613bb0846139ad565b90505f73ffffffffffffffffffffffffffffffffffffffff168373ffffffffffffffffffffffffffffffffffffffff1614613bf157613bf0818486614032565b5b5f73ffffffffffffffffffffffffffffffffffffffff168173ffffffffffffffffffffffffffffffffffffffff1614613c7c57613c305f855f5f6139e6565b600160035f8373ffffffffffffffffffffffffffffffffffffffff1673ffffffffffffffffffffffffffffffffffffffff1681526020019081526020015f205f82825403925050819055505b5f73ffffffffffffffffffffffffffffffffffffffff168573ffffffffffffffffffffffffffffffffffffffff1614613cfb57600160035f8773ffffffffffffffffffffffffffffffffffffffff1673ffffffffffffffffffffffffffffffffffffffff1681526020019081526020015f205f82825401925050819055505b8460025f8681526020019081526020015f205f6101000a81548173ffffffffffffffffffffffffffffffffffffffff021916908373ffffffffffffffffffffffffffffffffffffffff160217905550838573ffffffffffffffffffffffffffffffffffffffff168273ffffffffffffffffffffffffffffffffffffffff167fddf252ad1be2c89b69c2b068fc378daa952ba7f163c4a11628f55a4df523b3ef60405160405180910390a4809150509392505050565b60088054905060095f8381526020019081526020015f2081905550600881908060018154018082558091505060019003905f5260205f20015f909190919091505550565b5f613dfe836119cd565b90505f60075f8481526020019081526020015f205490505f60065f8673ffffffffffffffffffffffffffffffffffffffff1673ffffffffffffffffffffffffffffffffffffffff1681526020019081526020015f209050828214613e9d575f815f8581526020019081526020015f2054905080825f8581526020019081526020015f20819055508260075f8381526020019081526020015f2081905550505b60075f8581526020019081526020015f205f9055805f8481526020019081526020015f205f90555050505050565b5f6001600880549050613ede919061538e565b90505f60095f8481526020019081526020015f205490505f60088381548110613f0a57613f0961505c565b5b905f5260205f20015490508060088381548110613f2a57613f2961505c565b5b905f5260205f2001819055508160095f8381526020019081526020015f208190555060095f8581526020019081526020015f205f90556008805480613f7257613f71615a59565b5b600190038181905f5260205f20015f9055905550505050565b5f6001613f97846119cd565b613fa1919061538e565b90508160065f8573ffffffffffffffffffffffffffffffffffffffff1673ffffffffffffffffffffffffffffffffffffffff1681526020019081526020015f205f8381526020019081526020015f20819055508060075f8481526020019081526020015f2081905550505050565b61401983836140f5565b61402d6140246130fe565b5f858585613798565b505050565b61403d8383836141e8565b6140f0575f73ffffffffffffffffffffffffffffffffffffffff168373ffffffffffffffffffffffffffffffffffffffff16036140b157806040517f7e2732890000000000000000000000000000000000000000000000000000000081526004016140a89190614529565b60405180910390fd5b81816040517f177e802f0000000000000000000000000000000000000000000000000000000081526004016140e7929190614dc6565b60405180910390fd5b505050565b5f73ffffffffffffffffffffffffffffffffffffffff168273ffffffffffffffffffffffffffffffffffffffff1603614165575f6040517f64a0ae9200000000000000000000000000000000000000000000000000000000815260040161415c9190614499565b60405180910390fd5b5f61417183835f613117565b90505f73ffffffffffffffffffffffffffffffffffffffff168173ffffffffffffffffffffffffffffffffffffffff16146141e3575f6040517f73c6ac6e0000000000000000000000000000000000000000000000000000000081526004016141da9190614499565b60405180910390fd5b505050565b5f5f73ffffffffffffffffffffffffffffffffffffffff168373ffffffffffffffffffffffffffffffffffffffff161415801561429f57508273ffffffffffffffffffffffffffffffffffffffff168473ffffffffffffffffffffffffffffffffffffffff161480614260575061425f8484612e4c565b5b8061429e57508273ffffffffffffffffffffffffffffffffffffffff16614286836130c5565b73ffffffffffffffffffffffffffffffffffffffff16145b5b90509392505050565b5f604051905090565b5f5ffd5b5f5ffd5b5f7fffffffff0000000000000000000000000000000000000000000000000000000082169050919050565b6142ed816142b9565b81146142f7575f5ffd5b50565b5f81359050614308816142e4565b92915050565b5f60208284031215614323576143226142b1565b5b5f614330848285016142fa565b91505092915050565b5f8115159050919050565b61434d81614339565b82525050565b5f6020820190506143665f830184614344565b92915050565b5f81519050919050565b5f82825260208201905092915050565b8281835e5f83830152505050565b5f601f19601f8301169050919050565b5f6143ae8261436c565b6143b88185614376565b93506143c8818560208601614386565b6143d181614394565b840191505092915050565b5f6020820190508181035f8301526143f481846143a4565b905092915050565b5f819050919050565b61440e816143fc565b8114614418575f5ffd5b50565b5f8135905061442981614405565b92915050565b5f60208284031215614444576144436142b1565b5b5f6144518482850161441b565b91505092915050565b5f73ffffffffffffffffffffffffffffffffffffffff82169050919050565b5f6144838261445a565b9050919050565b61449381614479565b82525050565b5f6020820190506144ac5f83018461448a565b92915050565b6144bb81614479565b81146144c5575f5ffd5b50565b5f813590506144d6816144b2565b92915050565b5f5f604083850312156144f2576144f16142b1565b5b5f6144ff858286016144c8565b92505060206145108582860161441b565b9150509250929050565b614523816143fc565b82525050565b5f60208201905061453c5f83018461451a565b92915050565b5f5f5f60608486031215614559576145586142b1565b5b5f614566868287016144c8565b9350506020614577868287016144c8565b92505060406145888682870161441b565b9150509250925092565b5f5f604083850312156145a8576145a76142b1565b5b5f6145b58582860161441b565b92505060206145c68582860161441b565b9150509250929050565b5f5ffd5b5f5ffd5b7f4e487b71000000000000000000000000000000000000000000000000000000005f52604160045260245ffd5b61460e82614394565b810181811067ffffffffffffffff8211171561462d5761462c6145d8565b5b80604052505050565b5f61463f6142a8565b905061464b8282614605565b919050565b5f67ffffffffffffffff82111561466a576146696145d8565b5b61467382614394565b9050602081019050919050565b828183375f83830152505050565b5f6146a061469b84614650565b614636565b9050828152602081018484840111156146bc576146bb6145d4565b5b6146c7848285614680565b509392505050565b5f82601f8301126146e3576146e26145d0565b5b81356146f384826020860161468e565b91505092915050565b61470581614339565b811461470f575f5ffd5b50565b5f81359050614720816146fc565b92915050565b5f5f5f5f5f5f5f5f610100898b031215614743576147426142b1565b5b5f6147508b828c016144c8565b98505060206147618b828c0161441b565b975050604089013567ffffffffffffffff811115614782576147816142b5565b5b61478e8b828c016146cf565b965050606089013567ffffffffffffffff8111156147af576147ae6142b5565b5b6147bb8b828c016146cf565b955050608089013567ffffffffffffffff8111156147dc576147db6142b5565b5b6147e88b828c016146cf565b94505060a06147f98b828c0161441b565b93505060c061480a8b828c0161441b565b92505060e061481b8b828c01614712565b9150509295985092959890939650565b5f602082840312156148405761483f6142b1565b5b5f61484d848285016144c8565b91505092915050565b5f5f5f6060848603121561486d5761486c6142b1565b5b5f61487a8682870161441b565b935050602061488b868287016144c8565b925050604061489c8682870161441b565b9150509250925092565b5f5f604083850312156148bc576148bb6142b1565b5b5f6148c9858286016144c8565b92505060206148da85828601614712565b9150509250929050565b5f610100820190508181035f8301526148fd818b6143a4565b90508181036020830152614911818a6143a4565b9050818103604083015261492581896143a4565b9050614934606083018861451a565b614941608083018761451a565b61494e60a083018661451a565b61495b60c083018561451a565b61496860e0830184614344565b9998505050505050505050565b5f67ffffffffffffffff82111561498f5761498e6145d8565b5b61499882614394565b9050602081019050919050565b5f6149b76149b284614975565b614636565b9050828152602081018484840111156149d3576149d26145d4565b5b6149de848285614680565b509392505050565b5f82601f8301126149fa576149f96145d0565b5b8135614a0a8482602086016149a5565b91505092915050565b5f5f5f5f60808587031215614a2b57614a2a6142b1565b5b5f614a38878288016144c8565b9450506020614a49878288016144c8565b9350506040614a5a8782880161441b565b925050606085013567ffffffffffffffff811115614a7b57614a7a6142b5565b5b614a87878288016149e6565b91505092959194509250565b5f5f60408385031215614aa957614aa86142b1565b5b5f614ab68582860161441b565b9250506020614ac7858286016144c8565b9150509250929050565b5f60c082019050614ae45f83018961448a565b614af1602083018861451a565b614afe6040830187614344565b614b0b606083018661448a565b614b186080830185614344565b614b2560a083018461451a565b979650505050505050565b5f5f60408385031215614b4657614b456142b1565b5b5f614b53858286016144c8565b9250506020614b64858286016144c8565b9150509250929050565b7f4e487b71000000000000000000000000000000000000000000000000000000005f52602260045260245ffd5b5f6002820490506001821680614bb257607f821691505b602082108103614bc557614bc4614b6e565b5b50919050565b5f606082019050614bde5f83018661448a565b614beb602083018561451a565b614bf8604083018461448a565b949350505050565b7f546f6b656e20646f6573206e6f742065786973740000000000000000000000005f82015250565b5f614c34601483614376565b9150614c3f82614c00565b602082019050919050565b5f6020820190508181035f830152614c6181614c28565b9050919050565b7f416c726561647920766f746564206f6e20746869732070726f706f73616c00005f82015250565b5f614c9c601e83614376565b9150614ca782614c68565b602082019050919050565b5f6020820190508181035f830152614cc981614c90565b9050919050565b7f4e6f206672616374696f6e7320746f20766f74652077697468000000000000005f82015250565b5f614d04601983614376565b9150614d0f82614cd0565b602082019050919050565b5f6020820190508181035f830152614d3181614cf8565b9050919050565b7f4672616374696f6e7320616c7265616479207573656420666f7220766f74696e5f8201527f6700000000000000000000000000000000000000000000000000000000000000602082015250565b5f614d92602183614376565b9150614d9d82614d38565b604082019050919050565b5f6020820190508181035f830152614dbf81614d86565b9050919050565b5f604082019050614dd95f83018561448a565b614de6602083018461451a565b9392505050565b5f819050815f5260205f209050919050565b5f6020601f8301049050919050565b5f82821b905092915050565b5f60088302614e497fffffffffffffffffffffffffffffffffffffffffffffffffffffffffffffffff82614e0e565b614e538683614e0e565b95508019841693508086168417925050509392505050565b5f819050919050565b5f614e8e614e89614e84846143fc565b614e6b565b6143fc565b9050919050565b5f819050919050565b614ea783614e74565b614ebb614eb382614e95565b848454614e1a565b825550505050565b5f5f905090565b614ed2614ec3565b614edd818484614e9e565b505050565b5b81811015614f0057614ef55f82614eca565b600181019050614ee3565b5050565b601f821115614f4557614f1681614ded565b614f1f84614dff565b81016020851015614f2e578190505b614f42614f3a85614dff565b830182614ee2565b50505b505050565b5f82821c905092915050565b5f614f655f1984600802614f4a565b1980831691505092915050565b5f614f7d8383614f56565b9150826002028217905092915050565b614f968261436c565b67ffffffffffffffff811115614faf57614fae6145d8565b5b614fb98254614b9b565b614fc4828285614f04565b5f60209050601f831160018114614ff5575f8415614fe3578287015190505b614fed8582614f72565b865550615054565b601f19841661500386614ded565b5f5b8281101561502a57848901518255600182019150602085019450602081019050615005565b868310156150475784890151615043601f891682614f56565b8355505b6001600288020188555050505b505050505050565b7f4e487b71000000000000000000000000000000000000000000000000000000005f52603260045260245ffd5b7f416c72656164792064656c6567617465640000000000000000000000000000005f82015250565b5f6150bd601183614376565b91506150c882615089565b602082019050919050565b5f6020820190508181035f8301526150ea816150b1565b9050919050565b7f44656c656761746520746f207a65726f206164647265737300000000000000005f82015250565b5f615125601883614376565b9150615130826150f1565b602082019050919050565b5f6020820190508181035f83015261515281615119565b9050919050565b7f43616e6e6f742064656c656761746520746f2073656c660000000000000000005f82015250565b5f61518d601783614376565b915061519882615159565b602082019050919050565b5f6020820190508181035f8301526151ba81615181565b9050919050565b7f416d6f756e74206d75737420626520706f7369746976650000000000000000005f82015250565b5f6151f5601783614376565b9150615200826151c1565b602082019050919050565b5f6020820190508181035f830152615222816151e9565b9050919050565b7f4e6f7420746865206672616374696f6e206f776e6572000000000000000000005f82015250565b5f61525d601683614376565b915061526882615229565b602082019050919050565b5f6020820190508181035f83015261528a81615251565b9050919050565b7f496e73756666696369656e74206672616374696f6e2062616c616e63650000005f82015250565b5f6152c5601d83614376565b91506152d082615291565b602082019050919050565b5f6020820190508181035f8301526152f2816152b9565b9050919050565b7f43616e6e6f742064656c656761746520616674657220766f74696e67000000005f82015250565b5f61532d601c83614376565b9150615338826152f9565b602082019050919050565b5f6020820190508181035f83015261535a81615321565b9050919050565b7f4e487b71000000000000000000000000000000000000000000000000000000005f52601160045260245ffd5b5f615398826143fc565b91506153a3836143fc565b92508282039050818111156153bb576153ba615361565b5b92915050565b5f6153cb826143fc565b91506153d6836143fc565b92508282019050808211156153ee576153ed615361565b5b92915050565b7f4e6f206672616374696f6e73206f776e656400000000000000000000000000005f82015250565b5f615428601283614376565b9150615433826153f4565b602082019050919050565b5f6020820190508181035f8301526154558161541c565b9050919050565b7f4e6f20726f79616c7469657320746f20636c61696d00000000000000000000005f82015250565b5f615490601583614376565b915061549b8261545c565b602082019050919050565b5f6020820190508181035f8301526154bd81615484565b9050919050565b5f6154ce826143fc565b91506154d9836143fc565b92508282026154e7816143fc565b915082820484148315176154fe576154fd615361565b5b5092915050565b7f4e487b71000000000000000000000000000000000000000000000000000000005f52601260045260245ffd5b5f61553c826143fc565b9150615547836143fc565b92508261555757615556615505565b5b828204905092915050565b7f526f79616c747920736861726520746f6f20736d616c6c0000000000000000005f82015250565b5f615596601783614376565b91506155a182615562565b602082019050919050565b5f6020820190508181035f8301526155c38161558a565b9050919050565b7f4e6f20726f79616c7469657320746f20646973747269627574650000000000005f82015250565b5f6155fe601a83614376565b9150615609826155ca565b602082019050919050565b5f6020820190508181035f83015261562b816155f2565b9050919050565b7f416c7265616479207261676520717569740000000000000000000000000000005f82015250565b5f615666601183614376565b915061567182615632565b602082019050919050565b5f6020820190508181035f8301526156938161565a565b9050919050565b5f6156a4826143fc565b91507fffffffffffffffffffffffffffffffffffffffffffffffffffffffffffffffff82036156d6576156d5615361565b5b600182019050919050565b7f4e6f20656c696769626c6520746f6b656e7320666f72207261676520717569745f82015250565b5f615715602083614376565b9150615720826156e1565b602082019050919050565b5f6020820190508181035f83015261574281615709565b9050919050565b5f81519050919050565b5f82825260208201905092915050565b5f819050602082019050919050565b61577b816143fc565b82525050565b5f61578c8383615772565b60208301905092915050565b5f602082019050919050565b5f6157ae82615749565b6157b88185615753565b93506157c383615763565b805f5b838110156157f35781516157da8882615781565b97506157e583615798565b9250506001810190506157c6565b5085935050505092915050565b5f6020820190508181035f83015261581881846157a4565b905092915050565b7f5472616e7366657220746f207a65726f206164647265737300000000000000005f82015250565b5f615854601883614376565b915061585f82615820565b602082019050919050565b5f6020820190508181035f83015261588181615848565b9050919050565b7f43616e6e6f74207472616e7366657220616674657220766f74696e67000000005f82015250565b5f6158bc601c83614376565b91506158c782615888565b602082019050919050565b5f6020820190508181035f8301526158e9816158b0565b9050919050565b7f43616e6e6f74207472616e736665722064656c656761746564206672616374695f8201527f6f6e730000000000000000000000000000000000000000000000000000000000602082015250565b5f61594a602383614376565b9150615955826158f0565b604082019050919050565b5f6020820190508181035f8301526159778161593e565b9050919050565b5f81519050919050565b5f82825260208201905092915050565b5f6159a28261597e565b6159ac8185615988565b93506159bc818560208601614386565b6159c581614394565b840191505092915050565b5f6080820190506159e35f83018761448a565b6159f0602083018661448a565b6159fd604083018561451a565b8181036060830152615a0f8184615998565b905095945050505050565b5f81519050615a28816142e4565b92915050565b5f60208284031215615a4357615a426142b1565b5b5f615a5084828501615a1a565b91505092915050565b7f4e487b71000000000000000000000000000000000000000000000000000000005f52603160045260245ffdfea26469706673582212204a8ac80e9c488f956b2c855a2ca72c9080768c1331cb62261a43c5d0d5f0d56664736f6c634300081c0033","linkReferences":{}},"methodIdentifiers":{"approve(address,uint256)":"095ea7b3","balanceOf(address)":"70a08231","castVote(uint256,uint256)":"2c0a3f89","claimRoyalties(uint256)":"86ad310f","delegate(address)":"5c19a95c","delegateFractions(uint256,address,uint256)":"61e58ed1","distributeRoyalties(uint256)":"b07cb365","getApproved(uint256)":"081812fc","getFraction(uint256,address)":"cd595ac2","getMetadata(uint256)":"a574cea4","getVotingPower(address)":"bb4d4436","hasDelegated(address)":"90ae9337","hasVotedOnProposal(address,uint256)":"2da46385","isApprovedForAll(address,address)":"e985e9c5","mint(address,uint256,string,string,string,uint256,uint256,bool)":"33eec834","name()":"06fdde03","owner()":"8da5cb5b","ownerOf(uint256)":"6352211e","rageQuit()":"b0ccbf8c","renounceOwnership()":"715018a6","safeTransferFrom(address,address,uint256)":"42842e0e","safeTransferFrom(address,address,uint256,bytes)":"b88d4fde","setApprovalForAll(address,bool)":"a22cb465","supportsInterface(bytes4)":"01ffc9a7","symbol()":"95d89b41","tokenByIndex(uint256)":"4f6ccce7","tokenOfOwnerByIndex(address,uint256)":"2f745c59","tokenURI(uint256)":"c87b56dd","totalSupply()":"18160ddd","transferFractions(uint256,address,uint256)":"dd3e1770","transferFrom(address,address,uint256)":"23b872dd","transferOwnership(address)":"f2fde38b"},"id":33}